:020000040001F9
:10C00000D049002039C5010041C5010043C50100E8
:10C0100045C5010047C5010049C5010000000000F9
:10C020000000000000000000000000004BC50100FF
:10C030004DC50100000000004FC5010051C50100C1
:10C0400053C5010053C5010091CA010053C5010049
:10C0500053C5010053C501002DC6010053C50100A1
:10C0600053C5010053C5010053C5010053C501006C
:10C0700053C5010053C5010053C5010053C501005C
:10C0800053C50100D9C7010053C5010053C50100C4
:10C09000FDC7010053C5010001C8010053C50100DF
:10C0A00053C5010053C5010053C5010053C501002C
:10C0B00053C5010053C5010000000000000000004E
:10C0C00053C5010053C5010053C5010053C501000C
:10C0D00053C5010053C5010053C501000000000015
:10C0E0000000000000000000000000000000000050
:10C0F0000000000000000000000000000000000040
:10C10000000000000000000000000000000000002F
:10C11000000000000000000000000000000000001F
:10C40000DFF80CD000F0E2F8004800474DFD0100D5
:10C41000D0490020401E00BF00BF00BF00BF00BFCA
:10C4200000BF00BF00BF00BF00BF00BF00BF00BF14
:10C4300000BF00BF00BF00BF00BF00BF00BF00BF04
:10C4400000BF00BF00BF00BF00BF00BF00BF00BFF4
:10C4500000BF00BF00BF00BF00BF00BF00BF00BFE4
:10C4600000BF00BF00BF00BF00BF00BF00BF00BFD4
:10C4700000BF00BF00BF00BF00BF00BF00BF00BFC4
:10C4800000BF00BF00BFC5D170470000401E00BF05
:10C4900000BF00BF00BF00BF00BF00BF00BF00BFA4
:10C4A00000BF00BF00BF00BF00BF00BF00BF00BF94
:10C4B00000BF00BF00BF00BF00BF00BF00BF00BF84
:10C4C00000BF00BF00BF00BF00BF00BF00BF00BF74
:10C4D00000BF00BF00BF00BF00BF00BF00BF00BF64
:10C4E00000BF00BF00BF00BF00BF00BF00BF00BF54
:10C4F00000BF00BF00BF00BF00BF00BF00BFC5D16D
:10C5000070470000056885F308884068FF2464B21E
:10C51000EFF30585002D01D1A646004725460646C6
:10C5200021273FBAF0B40024002500260027F0B4EC
:10C53000F92040B2004700000648804706480047FF
:10C54000FEE7FEE7FEE7FEE7FEE7FEE7FEE7FEE7C3
:10C55000FEE7FEE725C8010001C4010040EA01032F
:10C560009B0703D009E008C9121F08C0042AFAD2A9
:10C5700003E011F8013B00F8013B521EF9D270476D
:10C58000D2B201E000F8012B491EFBD27047002215
:10C59000F6E710B513460A4604461946FFF7F0FFC2
:10C5A000204610BD421C10F8011B0029FBD1801A47
:10C5B000704730B504460020034600E05B1C934200
:10C5C00003D2E05CCD5C401BF8D030BD064C074D7B
:10C5D00006E0E06840F0010394E807009847103453
:10C5E000AC42F6D3FFF710FF3818020058180200CB
:10C5F00030B58C1810F8012B12F00F0301D110F890
:10C60000013B120906D110F8012B03E010F8015B81
:10C6100001F8015B5B1EF9D101E001F8013B521EFC
:10C62000FBD1A142E6D3002030BD00002DE9FC5F24
:10C630000025DFF83491A8464FF4807601242F4678
:10C64000304603F005FE38B1D9F80403204203D088
:10C65000304603F0F3FD2543361D64007F1CB6B25F
:10C66000082FEDD34FF4BE74204603F0F1FD38B12E
:10C67000204603F0E3FD3D4845F00045D0F800803A
:10C680003B4E15F0FF0F14D0012700242F420CD091
:10C6900009EB8401D1F81005D1F81015C0F304207E
:10C6A00056F82420C1F3014190477F00641C082CF8
:10C6B000ECD3002D56DA00200190401E4CE070199A
:10C6C00010F8501F90F9000021F0C004401C38D031
:10C6D000012000FA04FA1AEA090F32D04FEA911B3E
:10C6E000204601F071FE56F82000009010B9BBF111
:10C6F000030F26D15146BBF1030F02D10198084325
:10C700000190A00000F1A040D0F800071AEA080F3D
:10C71000C0F3014002D0022802D012E0032810D159
:10C72000BBF1030F07D102281AD00221204603F0E3
:10C7300076FD7F1CFFB2009818B1009A594620463A
:10C7400090476D1C042DBAD3002F0BD0074800680A
:10C75000404507D080460198002781463D46AEE718
:10C760000321E3E7BDE8FC9F006000401005005096
:10C77000C027002000F01F020121914040098000E5
:10C7800000F1E020C0F88012704700F01F02012184
:10C7900091404009800000F1E020C0F8001170478E
:10C7A00000F01F02012191404009800000F1E020CB
:10C7B000C0F8001270474907090E002806DA00F099
:10C7C0000F0000F1E02080F8141D704700F1E02018
:10C7D00080F800147047000007480021C0F840119D
:10C7E000C0F84411C0F84811C0F84C11C0F800114D
:10C7F000C0F8041104F08ABD0010014004F022BD0D
:10C80000074810B5406830B18047002807D0BDE820
:10C81000104000F015BBBDE8104003F031B910BD69
:10C82000D421002070B58D480023021D0178101D11
:10C830000124062907D115782D0704D10578C5F301
:10C840000315032D02D0062904D00FE0854E844D38
:10C8500075670EE015782D0708D10578C5F3031527
:10C86000032D06D0042D04D0052D02D0062909D0B1
:10C8700010E04FF08055D5F844527B4EC5F3423559
:10C88000356002E015782D0704D10578C5F303154E
:10C89000032D02D0062906D011E0744D2E6826F033
:10C8A00080762E600EE015782D0708D10578C5F347
:10C8B0000315032D06D0042D04D0052D02D0062922
:10C8C0000AD011E04FF08045C5F80C31C5F81031A1
:10C8D000654D2D1F2B6002E015782D0704D10578DA
:10C8E000C5F30315032D02D0062905D00CE05E4ADE
:10C8F0000321643211600AE015782D0704D1057810
:10C90000C5F30315032D02D006290DD06AE0584A5D
:10C9100005211160564978310C60554908310B608A
:10C920003F21121D116002E0117809075AD10078E9
:10C93000C0F30310052855D14E4800684E490860E1
:10C940004C48001D0068091D08604A48083000680E
:10C95000091D086047480C300068091D08604548FB
:10C9600010300068091D0860424814300068091D35
:10C9700008604048183000683F49203108603D4851
:10C980001C300068091D08603A4820300068091D05
:10C990000860384824300068091D08603548283090
:10C9A0000068091D086033482C300068091D0860C4
:10C9B0003048303000683049403108602D4834300C
:10C9C0000068091D08602B4838300068091D0860A0
:10C9D00028483C300068091D08602648403000683F
:10C9E000091D086021487438016841F47001016034
:10C9F000BFF34F8FBFF36F8F4FF01021D1F80002BC
:10CA0000002803DBD1F80402002822DA1B4A146054
:10CA10001B480468002CFCD01524C1F800420568AE
:10CA2000002DFCD0C1F8044201680029FCD013603D
:10CA300001680029FCD0BFF34F8F0C48F038016823
:10CA4000104A01F4E06111430160BFF34F8F00BF52
:10CA5000FDE70E490C48086070BD0000E00F00F0D3
:10CA60000DF0ADBA00C007403C050040FCED00E011
:10CA7000105600400404001020C5004004E50140A9
:10CA800000E401400400FA050090D003E8210020F2
:10CA90000348007F08B104F023BD04F09DBC0000F2
:10CAA0001828002002E008C8121F08C1002AFAD185
:10CAB00070477047002001E001C1121F002AFBD11E
:10CAC00070472DE9FC5F0025168807461580406BEE
:10CAD00014468946A8464FF00C0A11234FF0020B6A
:10CAE00098B101784846032E48D380F800B02288D8
:10CAF000521C92B2228083542288521C92B222800D
:10CB000009F802102088401C20803A6BDAB1208896
:10CB1000494600F11205B54230D80B542088102345
:10CB2000401C80B220800B542088401C20800F20A5
:10CB30002388155C401ECD54238840B25B1C2380A3
:10CB40000028F5DA454697F82E0030B133462246E4
:10CB5000494603F003F8050011D197F82D0030B1D4
:10CB600032462146484600F06BFE050007D1B878F2
:10CB700020B32088C846001DB04202D95046BDE807
:10CB8000FC9F684679DF0028F9D12188032008F846
:10CB9000010020881921401C80B2208008F8001074
:10CBA0002088401C80B2208000EB0801BDF8000006
:10CBB00004F002FD0146208808442080F878B8B1CE
:10CBC000228897F90310D31C4846B342D6D800F800
:10CBD00002B022880123521C92B222808354228800
:10CBE000521C92B2228009F802102088401C20803A
:10CBF0007868B8B1218890F90020CB1C4846B34230
:10CC0000BCD800F801B021880A23491C89B22180D0
:10CC100043542188491C89B2218009F801202088C9
:10CC2000401C2080388950B1CDE900464B46062291
:10CC3000022107F1080004F032FD05009FD1388A77
:10CC400050B1CDE900464B460722032107F1100001
:10CC500004F025FD050092D1388B50B1CDE9004696
:10CC60004B461522142107F1180004F018FD0500A9
:10CC700085D1386A30B133462246494601F054FD29
:10CC80000500DBD1786A30B133462246494603F0CD
:10CC900019F90500D2D197F82C0038B13346224655
:10CCA0004946384604F02CF80500C7D1387838B129
:10CCB000334622464946384603F036F90500BDD1D1
:10CCC00028465CE710B501220221002001F096F908
:10CCD00008B1072810D107220221012001F08EF9A6
:10CCE00008B1072808D100210A22084601F086F978
:10CCF00008B1072800D1002010BD000006480068D8
:10CD00004FF40021044A8143121D1160111D00F4EB
:10CD100000200860704700000405005070B5002432
:10CD2000064D06E06868012110F8340003F07AF936
:10CD3000641C28788442F5D3002070BD982100201F
:10CD4000F8B515460C460646052A01D20720F8BD5F
:10CD500003F04AFA18B903F01DFA0028F7D1104978
:10CD600000204E600C70C1E902500E4D08610DE0CC
:10CD700006EBC4006968009181788DF80110007895
:10CD8000094A694603F0A0F90028E0D1641EE4B224
:10CD9000EED2BDE8F840054A0021024800F08AB80A
:10CDA0009821002030180200B1F90100D9E80100F3
:10CDB0003EB504460420019017480290694620467B
:10CDC00001F0FEFF38B1A0F50041403902D000BFAC
:10CDD00000F036F83EBD1048001F0179C90715D094
:10CDE0004FF6FF720C214088A7DF78B1A0F54051C3
:10CDF00002390BD0082809D0891E07D0112805D088
:10CE000043F20141884201D000F01AF8204601F0B7
:10CE1000D4FF0028DCD13EBD84200020BFF34F8F1B
:10CE200005480168054A01F4E06111430160BFF360
:10CE30004F8F00BFFDE700000CED00E00400FA0595
:10CE40000EB500210091CDE901106A4644F20100BF
:10CE5000FFF7E4FF0EBD0000014B1B681847000000
:10CE60009C27002038B50C46074BA268097802EBD6
:10CE7000420253F82250054A126A0092024604F117
:10CE800008002369A84738BD042900207421002028
:10CE9000074910B50A7802EB820201EB8201091DF5
:10CEA000FFF7E0FFBDE81040042004F03BB80000AD
:10CEB00038280020074B9B6823B12AB120B10068B5
:10CEC000037C1BB108207047072070474174426102
:10CED00000207047AC2100202DE9F047804699469C
:10CEE00014460F4690074FF0000634D11C4D8CB30A
:10CEF00003F000FE0320C5F81490287004F1180018
:10CF0000002107EB4703AC6004EBC102491C16701B
:10CF100056709770506000EBC3000329F4DBEE609D
:10CF20006E70AE701420FFF725FC06211420FFF769
:10CF300042FC1420FFF729FC0A49C1F800800621B1
:10CF40001120FFF738FC0748001F00682861002007
:10CF5000BDE8F08701E00720FAE7AE60FBE70000DC
:10CF6000AC210020081501402DE9F843DFF870904E
:10CF70000D461746D9F80810044651B34CB3052D99
:10CF800002D20720BDE8F883606910B3607C0128F5
:10CF900021D0002604F050FBD9F80810804601EBA0
:10CFA000C800694604F067FBB8B1012100F8041B12
:10CFB0000C4910C0096880E8E200D9F8081001EBBC
:10CFC000C8009DF8001041701420FFF7E9FB002015
:10CFD000D8E70820D6E72E46DCE70420D2E7000099
:10CFE000AC21002004150140F8B5124E0446B1688A
:10CFF000E1B1DCB16069C8B10027277404F01CFB03
:10D000000546B068694600EBC50004F034FB78B112
:10D01000022101704460B0689DF8001000EBC5006B
:10D0200041701420FFF7BCFB3846F8BD0820F8BD5E
:10D030000420F8BDAC2100202DE9F0430546007D19
:10D0400093B00E460024A0B107949DF81C0020F078
:10D050000F00401C20F0F00010308DF81C00707B99
:10D060008DF81D009DF81E0020F00600801C8DF834
:10D070001E001C216846FFF78AFA9DF8000040F068
:10D0800002008DF80000297D11B140F0100001E090
:10D0900020F010008DF80000019403940494287D82
:10D0A00000B107A8CDE9050401278DF8427042F6CA
:10D0B0001920ADF840000D94B07B8DF83400F07B62
:10D0C0008DF835009DF83600142120F00600801CF4
:10D0D00020F019008DF83600307B8DF8440008A848
:10D0E000FFF755FA0DF140080DF13409ADF828703D
:10D0F00011A8CDE90889ADF82A40ADF82C700C9044
:10D10000A888AB1D08AA6946A2DF002838D1B068FC
:10D1100098B38DF8427042F60810ADF840000D94B7
:10D12000307C8DF834009DF8350020F0FF008DF83C
:10D1300035009DF8360020F00600801C20F0190014
:10D140008DF836000EA8B16800F0BAFD064614212D
:10D1500008A8FFF71CFAADF828600EA8CDE90889E9
:10D16000ADF82A40ADF82C600C90E88805F10E026D
:10D1700008A9A3DF002803D101E0FFE7EC8100202C
:10D1800013B0BDE8F083000010B50D490D4803F061
:10D19000AAFDC1B20A48343800F052FA00280DD076
:10D1A00008280BD0A0F54051043907D043F20141C3
:10D1B000884203D0BDE81040FFF742BE10BD00001A
:10D1C0007024002088200020F0B50C4693B01F2169
:10D1D0000726ADF80010ADF80410002750B1C17853
:10D1E00049070DD56A4602A9FFF76BFC002808D154
:10D1F00002AD02E00025ADF800706CB1E07810B12E
:10D20000304613B0F0BD01AA0AA92046FFF759FC29
:10D210000028F6D10AAA02E00022ADF80470BDF899
:10D220000400C3B2BDF80000C1B2284672DFE8E7CF
:10D2300070B50D4604991646040040D0F6B3414837
:10D2400000224271C0E90331242231463E48FFF7F3
:10D2500085F900F0D5F83C493431A1F110000160A6
:10D260002031816038215C38FFF791F93648217808
:10D2700038380170A1788170E178C17061784170AF
:10D28000D4E90412C0E90412D4E90212C0E902127E
:10D29000D4E90612C0E90612616AD1B100F1AC010D
:10D2A00000F1B80241628A60636A1B880B80616A80
:10D2B000436A898899800021436A07E0FFE70E20CE
:10D2C00070BD666AB668765C5654491C9E888E426C
:10D2D000F7D8A16AD9B11C4AAC32A2F10C018A601C
:10D2E0008162A36A9B888B80A16A836A09881980FE
:10D2F0000021836A04E0A66AB668765C5654491C2D
:10D300009E888E42F7D894F82C1080F82C10216A51
:10D3100049B10C4914310162226A52884A80216A5B
:10D32000026A09881180616821B10649891D41603E
:10D33000616841602946BDE8704003483838FFF70E
:10D3400043BF0000D42000208425002010B50288AF
:10D350001D4C102A18D00021112A1BD01B2A18D1CD
:10D36000007A002815D16079012820D0022824D025
:10D37000032824D004280CD12171E2680846002A31
:10D3800007D0BDE810401047817D012901D1808878
:10D39000208110BD6170808821898842F9D10120E7
:10D3A00006E021690029F4D0BDE8104008470220BA
:10D3B00000F056F80028F4D110BD0320F8E7032050
:10D3C00020710420F4E70000D420002010B50228CA
:10D3D00001D0032810D1094C207800280CD000205F
:10D3E0002070607900F03CF8002805D02169002900
:10D3F00002D0BDE81040084710BD0000D420002036
:10D40000024800218161818381777047D420002008
:10D41000114810B5007801281BD1104C6078C0B9B4
:10D42000607910B174DF002814D10B4901206070BD
:10D4300038390620C870084800213838FFF7C4FE84
:10D44000002807D1607900F00BF810B1216901B113
:10D450008847002010BD000084250020D420002033
:10D460002DE9F04F744C87B00026607106A806962F
:10D4700002F0FCFF0127082801D030B903E006A81C
:10D4800002F072F918B9069808B12770C0E0FFF7EA
:10D49000B7FF6A4DDFF8A0814FF0020A687808F103
:10D4A00018084FF0030B10B16079012806D0A87856
:10D4B00058B16079012801D002281FD1E16819B163
:10D4C000E7700820884700E0E6706079012806D1FF
:10D4D000687840B108F1010002F06EFF18B1607980
:10D4E000022802D00AE084F805A0A87820B108F14B
:10D4F000010002F061FF08B984F805B0287B4FF005
:10D50000040920B96079032801D184F80590287EA8
:10D5100020B96079042801D166712671E16841B1B2
:10D520006079032801D0042803D1287808B16078F5
:10D53000C0B1A67018216846FFF729F88DF8006081
:10D5400001968DF808600396607901280ED00228B4
:10D5500016D03A4E2436A6F15C0703281DD00428C5
:10D560004CD13AE0A77007208847E3E7ADF8126096
:10D57000CDF804808DF80070ADF8106027713FE0A1
:10D58000CDF804808DF800702889ADF81200A888C5
:10D59000ADF8100084F804A032E0A88AADF81200BB
:10D5A000288AADF810002548243004F0DFF818B1BF
:10D5B000287808B1607810B184F804B01EE01F48E4
:10D5C0008DF808A0039687F8039000213838FFF7FC
:10D5D000FBFD00281DD105202BE0A88BADF8100025
:10D5E000288CADF812001548243004F0BFF818B1AB
:10D5F000287808B1607878B184F80490607918B11F
:10D60000684673DF002804D1E16809B120798847B2
:10D61000002007B0BDE8F08F08488DF808A00396F9
:10D6200087F8039000213838FFF7CEFD0028F0D1AD
:10D6300006202071E2E70000D4200020842500208D
:10D6400073B586B0040034D0217C9DF81C200020E6
:10D6500091422CD0002501260095ADF8006007A866
:10D66000ADF802500190E188608A6A46A4DF002884
:10D670001DD19DF81C002074608AA0F57F41FF3900
:10D6800019D0207DB8B10295039504950595E088E1
:10D69000ADF80800BDF80200ADF80C0001988DF857
:10D6A0000A60CDF810D00590608A02A9A6DF08B004
:10D6B00070BD0E20FBE70820F9E738B50D460400E1
:10D6C0001BD0D5B1286820604FF6FF7060822879A2
:10D6D0002075FF20207401208DF8020041F60F0014
:10D6E000ADF80000221D69460120A0DF002803D10B
:10D6F00029462046FFF7A0FC38BD0E2038BD08B5EE
:10D70000002821D000291FD00A88102A17D0112AFA
:10D7100017D0502A18D1027D002A15D031F8062FD3
:10D7200043899A4210D14A89022A0DD10268002AFF
:10D730000AD0097B11F0010F07D0002106E089888B
:10D7400001E04FF6FF71418208BD01218DF8001004
:10D750006946904708BD000070B5054601461C2289
:10D760000F48FEF7FBFE0F4C00262670286830B1EC
:10D77000016861604068A060201D7ADF02E009480E
:10D78000001D7BDF00280AD14FF6FF7060806670B5
:10D79000BDE87040044A00210448FFF78BBB70BD10
:10D7A00070260020F4200020D9150200C4170200C2
:10D7B00070B51E4C068800251B49E289102E15D035
:10D7C0001B4B112E1CD0122E29D0502E17D130F801
:10D7D000061F914213D14189022910D1007B10F01C
:10D7E000010F11D0BDE8704000F0E4BF83884B808A
:10D7F0008369CB60C06908614D70002AF2D070BDAA
:10D800004FF6FF7048804D701868FFF7EDFB002859
:10D81000F5D0A1690029F2D0BDE8704008478268C0
:10D82000CA60C0680861DDE7F4200020702600208F
:10D83000C417020001480068FFF7D6BBC4170200F6
:10D840007CB5054608880C460930904201D90C2069
:10D850007CBD684671DF0028FAD121880820685411
:10D8600020881B21401C80B2208029542088401C25
:10D8700080B220802844DDF801100160BDF8051059
:10D8800081802088801D80B220809DF8001001B129
:10D89000012129542088401C208000207CBD0000EC
:10D8A00030B585B00D46040039D0BDB36868A8B363
:10D8B0001C4B4FF6FF7020800FCB0DF1040C8CE851
:10D8C0000F0041F23050ADF8000001A8811E63DF67
:10D8D000002821D1221D69460120A0DF00281BD18C
:10D8E0009DF80200A071204601F0CAF9002813D16A
:10D8F000204601F077F900280ED12946204601F094
:10D900000DFA002808D16868A062A86800B1E0623A
:10D91000054901200870002005B030BDFFE70E204A
:10D92000FAE70000F81702006C2100203EB500283D
:10D930003CD000293AD0826A002A37D00A88102ABF
:10D9400023D0112A33D0502A21D0512A2ED1044677
:10D950000A4611F8060F022828D14888238A9842DF
:10D9600024D1907B042821D006281FD005281DD063
:10D970002046891C02F0A4FC002817D0E16A002987
:10D9800014D003B0BDE830400847898811E0CA8848
:10D9900003899A420AD108228DF800200A7C1231AC
:10D9A0008DF808200191826A694690473EBD4FF686
:10D9B000FF7101803EBD000030B585B028B30388FB
:10D9C000A3F57F44FF3C22D0124B1B78FBB1114BD7
:10D9D00010255B1C00241D7059709A7001250321CD
:10D9E000ADF810100094019402940394018AADF8EC
:10D9F000001004A9CDE902138DF80250ADF80440DF
:10DA000000886946A6DF05B030BD0E20FBE7082080
:10DA1000F9E700006C2100207FB5044601208DF855
:10DA2000060041F60A00ADF80400454A01A90120AC
:10DA3000A0DF00287ED1228804F13C0552B1404885
:10DA40002B46801C009042F62920616800F0C4FC3F
:10DA5000002873D1228952B139482B460A300090F0
:10DA600042F62420E16800F0B7FC002866D1228A43
:10DA700052B133482B461230009042F6252061699E
:10DA800000F0AAFC002859D1228B52B12C482B4619
:10DA90001A30009042F62720E16900F09DFC002832
:10DAA0004CD1228C52B126482B462230009042F6AF
:10DAB0002620616A00F090FC00283FD1228D52B1EF
:10DAC0001F482B462A30009042F62820E16A00F0D9
:10DAD00083FC002832D1216B71B102A803F087FBCF
:10DAE00017482B4632300090082202A942F6232024
:10DAF00000F072FC002821D1606B58B110492B4610
:10DB00003A3100910279016842F62A2000F064FC63
:10DB1000002813D1A16B81B102A802F08DFC084846
:10DB20002B4642300090072202A942F6502000F016
:10DB300053FC00E002E0002800D1002004B070BDDA
:10DB40000821002070B5044601F05AF92146154815
:10DB500000F084F8134821461838FFF7D0FD20461E
:10DB6000FFF726FE204600F07FF920880E4D102892
:10DB700002D011280BD107E0072000F061FA08B1AC
:10DB8000FFF75EF9A08801E04FF6FF70688020463D
:10DB9000FFF7DCFB2146BDE8704002485C30FFF730
:10DBA000C5BE0000542400208020002038B50D465A
:10DBB00004001FD0F5B1286820604FF6FF70E082A6
:10DBC0006889208301208DF8020041F61400ADF829
:10DBD0000000221D69460120A0DF002809D1294646
:10DBE000204602F0F7FE002803D12946204602F025
:10DBF00069FE38BD0E2038BD30B58BB0040029D089
:10DC000041B3E08AA0F57F42FF3A25D005AA20461D
:10DC100002F041FF0546ADF800000020019002909F
:10DC200003900490E188ADF804100121ADF80800DC
:10DC30008DF8061005A8CDF80CD00490E08A01A953
:10DC4000A6DF002804D1BDF80010A94200D00C20A6
:10DC50000BB030BD0E20FBE70820F9E708B500281F
:10DC60001ED000291CD00A88102A14D0112A14D0E2
:10DC7000502A15D131F8062F43899A4210D14A898A
:10DC8000022A0DD10268002A0AD0097B11F0010F87
:10DC900007D0002106E0898801E04FF6FF71C182BC
:10DCA00008BD01218DF800106946904708BD70B588
:10DCB00004460D460846FEF775FC2080656070BD81
:10DCC0000A780270497841700220704700B51948FF
:10DCD00087B00023806805904822174905A803F003
:10DCE00069F908B1FFF7ACF86A460121002003F09A
:10DCF0004BF908B1FFF7A4F801208DF80C000F488C
:10DD000002F03EFF08B1FFF79BF8684603F032F9D6
:10DD100008B1FFF795F80A4803F022F908B1FFF7B8
:10DD20008FF8084803F060F9002801D0FFF788F861
:10DD300007B000BD7C170200F4230020E81F00207C
:10DD400045DB0100DD1102001CB5044681786A46FE
:10DD50000C4802F09DFB002813D160780A49C0EB03
:10DD6000C00001EB80001C231A46694602F03AFC11
:10DD7000054806494C30807A51F8202021466846F3
:10DD800090471CBD6421002050270020D8170200B6
:10DD9000F8B505460820ADF8000001236A461C4985
:10DDA0002846AADF1B4800688047B12044DF08B13D
:10DDB000FFF746F811DF08B1FFF742F84FF01024E3
:10DDC000606913DF08B1FFF73BF8284600F0B4FEA6
:10DDD00001204FF0E0218205C1F88022D1F8003106
:10DDE0005FF0000100FA01F21A420AD04AB202F0D2
:10DDF0001F0600FA06F55209920002F1E022C2F86D
:10DE00008051491C2029EDD3606900F005F8F8BD68
:10DE1000BC290020CC210020FEF774BB7CB5114E3C
:10DE20000C004FF00005306015D06946002000F06E
:10DE3000B1F8002815D101A9012000F0ABF80028A5
:10DE40000FD19DF8041009B1022003E09DF80010E5
:10DE500001B10B202070706810B9FEF733FF054642
:10DE600028467CBDCC20002010B51A4C0188606883
:10DE700010290ED011292BD1401E606028D1FEF749
:10DE800021FF002824D02168002921D0BDE81040BE
:10DE90000847D0B900210122084600F0AFF808B1C8
:10DEA00007280FD107220221012000F0A7F808B1AE
:10DEB000072807D104220221002000F09FF820B19A
:10DEC000072802D0216801B188476068401C606063
:10DED00010BD0000CC20002010B5032000F020FA77
:10DEE00008B1062800D1002010BD00002DE9F04740
:10DEF00007460024244802E0641C042C41D250F858
:10DF00002420BA42F8D1042C3BD21F48DFF87C9081
:10DF10001F4E0C38A9F1140841B301290FD0022972
:10DF20002FD104EB440030444578002D29D0D8F897
:10DF30001010002925D02846BDE8F047084704EB1B
:10DF40004401755C0E44717861B1D8F804100F4A31
:10DF500001EB81014900133A8068FFF705F808B921
:10DF600088F80170B17809F80410DEE78068FFF7DF
:10DF70003BF804EB4401314419F804008D78A842C1
:10DF8000D3D0BDE8F087000094170200C82000201D
:10DF90002025002004280CD2074A1268074B13F8EA
:10DFA000203001209840904300D0012008700020CC
:10DFB00070470020FAE70000100500509417020097
:10DFC00010B5042807D0072810D00A2812D1BDE8C0
:10DFD000104002F093BF08481321408876DF07E025
:10DFE000002807D0BDE81040FEF72ABFFFF710FA5F
:10DFF0000828F5D110BD00008020002070B5002356
:10E00000042810D20D4D00EB4004012A02D1012951
:10E010000CD00022094E00EB4000304461B10129D0
:10E0200006D0022906D00723184670BD0D30C2B2B3
:10E030002A55F9E74270F7E78270F5E720250020BE
:10E04000044A01460020127AD20702D0084600F0A6
:10E0500055B87047B420002070B50E4621490546DA
:10E0600000200A61C1E90165A9071BD5002401222E
:10E0700011462046FFF7C2FF641C042C02D2002880
:10E08000F5D00FE070B9720804211748FEF758FE6A
:10E0900040B9FEF743FE28B91348144A002114384A
:10E0A000FEF708FFE9070AD0114A4FF4F01111609A
:10E0B0000F4B00221B1D1A600D4A10321160002800
:10E0C0000FD109480B4A00211C38FEF7F3FE002847
:10E0D00007D1BDE8704004480121074A1838FEF70F
:10E0E000E9BE70BDB4200020A41702005DE301006A
:10E0F00008050050B1FB0100FDCC01002DE9F84FEF
:10E10000854EDFF810A24FF4E01CF16807462CEAB8
:10E11000010C0091002071680AF10404251D7F4B59
:10E120004FF400324FF4802B01EB810E8146182F03
:10E1300016D2DFE807F00C17173A4E607083868F0F
:10E14000868FEAA0A0A0A0A0CAD1D8E1EAEA009AEE
:10E150004FF4F01191432160C5F8009086F80090CB
:10E16000BDE8F88FC4F800C04846C5F80090DAF85A
:10E1700000C08CF4F01C5FEA8C3C09D5226028605A
:10E18000022F02D14FF4E16008E04FF47A6005E01D
:10E190002A602060022F3CD04FF4C8706422B0FB8C
:10E1A000F2F04143377000225EE0C4F800C04846F8
:10E1B000C5F80090DAF800C08CF4F01C5FEA8C3CE3
:10E1C00004D5226028604FF44870E7E72A60206099
:10E1D0001FE0C4F800C04846C5F80090DAF800C057
:10E1E0008CF4F01C5FEA8C3C02D522602860CCE7FE
:10E1F0002A602060D0E7C4F800C04846C5F8009007
:10E20000DAF800C08CF4F01C5FEA8C3CDED52260AA
:10E210002860C820C2E7C4F800C04846C5F800908E
:10E22000DAF800C08CF4F01C5FEA8C3C02D5226066
:10E23000286001E02A602060377014E0C4F800C054
:10E240004DE0DAF800002BEA0002226000F48020A2
:10E25000286008E0DAF800002BEA0001216000F4F1
:10E2600080202860714600221868BDE8F84FFEF74C
:10E270007BBE21602EE098465868FEF7B5FED7F1C8
:10E28000110100D040B1F16801F4F0112160C5F82E
:10E290000090C6F80C9063E74FF40022F260012969
:10E2A0000CD9C82011FB00F16420B1FBF0F17068BB
:10E2B00000224143D8F80400FEF756FEF16801F44D
:10E2C000F0112960C4F800904AE74FF4F011216082
:10E2D000C5F80090377043E74FF4E01121604946DC
:10E2E000C5F8009006E04FF4D01121604946C5F80A
:10E2F00000905A462A60BCE74FF4C011216049469D
:10E30000C5F800904FF4C022F4E74FF4F0112960F3
:10E310004946AEE704050050B420002088170200EB
:10E3200070B500210C4D012455F82120920002F116
:10E33000A042D2F8006704FA01F3034000D003239F
:10E3400026F4403646EA0343C2F80037491C042944
:10E35000EAD3002070BD000094170200007802216B
:10E36000FFF7C4BD05494FF0FF32082841F82020CF
:10E3700002D3084480F8482070470000C0270020DE
:10E38000F0B54FF0FF3512B10023082601E0082355
:10E390000C260C4C05E000BF54F823707F1C04D001
:10E3A0005B1CB342F8D32846F0BD26185DB286F850
:10E3B000305044F82310002AF5D1E11881F84800C4
:10E3C000F1E70000C02700200249084490F930001E
:10E3D00070470000C02700202DE9F0438FB01E4693
:10E3E000DDF8589015460F00804602D10020FEF758
:10E3F00027FD15B90020FEF723FD1C216846FEF716
:10E40000C6F800249DF80000039440F002008DF847
:10E410000000012001948DF83600049405940694C0
:10E42000ADF834800C9430788DF8300070788DF829
:10E4300031009DF83200142120F00600801C20F0ED
:10E4400019008DF8320007A8FEF7A1F80DA8079073
:10E450000CA808900748ADF82450ADF82640ADF858
:10E4600028500B974B4607AA69460088A2DF0FB0D9
:10E47000BDE8F083082100202DE9F0413B480178F8
:10E4800001EB810100EB8104D4E9030600EB4001BC
:10E490003648241DCC3000EB8100B0F80880458957
:10E4A000476802F074F8B6FBF0F100FB116088B326
:10E4B0005FF0000008FB05776188A288DFF8B08074
:10E4C00011448D190022C8F8102040B102F05FF805
:10E4D0006188884221D0BD4201D1A088E8B1A068FE
:10E4E00002281AD002F053F8A18844463144B1FB07
:10E4F000F0F200FB12108008C8F80C0002F047F898
:10E50000B5FBF0F100FB115078B10020BD4228D0DE
:10E5100068B126E0FFE70120CCE702F038F8B6FB4F
:10E52000F0F10320C8F814101CE00120EEE7ADB2B2
:10E53000BEB202F02CF8B6FBF0F702F028F8B5FBFB
:10E54000F0F0874201D1701B09E002F020F8064686
:10E5500002F01DF8B5FBF0F100FB1150301A8008F5
:10E5600020610220BDE8F04102F0DCBC3828002028
:10E57000742100200648017801EB810100EB810045
:10E580000079042801D000F059B8012002F0CABC7B
:10E59000382800200A480B4A017801EB810100EB82
:10E5A0008100C18811620079012805D0032801D0BB
:10E5B000042804D1FFF760BF012002F0B3BC70470C
:10E5C000382800207421002000EB8002054800213B
:10E5D00000EB820001220171C180C0E90321416189
:10E5E00001817047382800202DE9F041114D069E29
:10E5F0006C780A2C1BD02F783C440A2C00D30A3CA0
:10E6000004EB840405EB840420716261D1E900010C
:10E61000C4E90301E38026816878401C68700648DD
:10E62000007808B9FFF7B6FF0020BDE8F0810420AC
:10E63000FBE70000382800207421002010B50E4CA4
:10E64000207800EB800004EB80010020091DFEF71C
:10E6500009FC2078FFF7B8FF6078401E60702078D2
:10E66000401CC0B220700A2801D100202070BDE8F3
:10E670001040002002F056BC382800202DE9F05F41
:10E680002648C168F1B3DFF898B00E688146DBF820
:10E6900000400769C078E11B21F07F45ED1CB0B94F
:10E6A000DFF880804FF48030C8F84403C8F80403D2
:10E6B0001120FEF75FF81120FEF767F84FF0010A0E
:10E6C000C8F800A02F20FDF7E1FE89F803A0B542AD
:10E6D00000D23546124BE8193C3320F07F401860D9
:10E6E000DBF800105A46091B21F07F41001B20F087
:10E6F0007F40C91C81420FD9106818602F20FDF798
:10E70000C5FE00E004E0BDE8F05F1120FEF748B868
:10E71000BDE8F05F02F0EEB9BDE8F09FAC2100204B
:10E7200004150140001001402DE9F041178806460C
:10E73000B81D14460D46984202D90C20BDE8F08160
:10E740003188072206290AD34FF4486C4FF6FF732D
:10E75000614501D9994202D17088062801D210463C
:10E76000ECE7604501D99842F9D1994203D098422B
:10E7700001D08142F3D80520E85520881221401CA1
:10E7800080B2208029542088401C80B2208041190A
:10E79000308802F011FF2188084480B2208041199E
:10E7A000708802F009FF2188084420800020C5E716
:10E7B000FEF746BBF8B5134801F09AF9114D002653
:10E7C000114C0C3D30B16169B9B101208DF80000E8
:10E7D000684611E0287820B1616971B18DF8006058
:10E7E000F6E7687858B1A168084800220068FEF78B
:10E7F000BBFB10B1A16901B188472E70F8BD6168FB
:10E80000F2E700000021002070260020C41702005B
:10E8100070B5094B044608209E7A00250E4208D0A8
:10E82000A4F57F40FF3802D01889A04202D1002011
:10E83000156070BD052070BD9027002000EB4002E0
:10E840000748012100EB820081724FF6FF710181C0
:10E85000FF21C17200210160818081717047000039
:10E860009027002010B5134C207900071ED4606952
:10E87000401C6061E06808B104200AE001F046F93C
:10E8800008B1022005E0206960B16068C10704D0CA
:10E890000320BDE8104002F097BC40F0010060602A
:10E8A0000020F6E7BDE81040FFF764BEBDE8104069
:10E8B00002F080BC7421002006494868020707D492
:10E8C000820702D540F001004860022002F07CBCC3
:10E8D00002F070BC742100202DE9F04100260125D2
:10E8E000144C22E06068226900EBC607387805FA0C
:10E8F00000F1114217D08A43226101F041FC024627
:10E900003878E36805FA00F1194002FA00F39942F9
:10E9100009D17978012901D0012100E0002151407D
:10E920007A6802B19047761CF6B220788642D9D335
:10E93000BDE8F081982100202DE9FC410E460446F7
:10E9400081786A46254801F0A3FD002828D1607827
:10E95000234F00EB400007EB8000807A400621D473
:10E96000022E1FD0012E1FD01E4DA0781E49C0EBD5
:10E97000C00001EB800100231C226846A847A8B113
:10E98000022E0DD02078164900EB40000C3101EB2F
:10E9900080001649807A51F8202021466846904729
:10E9A000BDE8FC81124DE0E7124DDEE7022EF7D004
:10E9B000607800EB400007EB8000817A21F0400195
:10E9C0008172074960784039C0EBC00001EB8001DB
:10E9D0001C231A466846A847D4E70000642100209B
:10E9E000902700203D1102008C260020C81702004D
:10E9F000FD070200350702002DE9F04705250F4FFE
:10EA00009046894606460024C4EBC40007EB80000C
:10EA100036B1072231461030FDF7CBFD18B106E0C4
:10EA2000018B414503D10025C9F8004002E0641C78
:10EA3000072CE9D32846BDE8F08700008C2600208B
:10EA40007CB5054681B26A46074801F021FD040005
:10EA500008D16021684601F041FD040002D128463A
:10EA600001F0B4FC20467CBD6421002070B5054651
:10EA70000C46100001D0FEF7E3F92078152802D1EA
:10EA80002846FEF795F9002070BD00001FB58DF8EF
:10EA90000C0001F081FD08B1FEF7D2F903A800F0E7
:10EAA00063FC08B1FEF7CCF90020CDF805008DF825
:10EAB00009009DF80500694620F07E0040F0010045
:10EAC000303020F080008DF8050007208DF806001A
:10EAD00010208DF807000648009001208DF80400F2
:10EAE000044800F095FD002801D0FEF7A9F91FBDEC
:10EAF0006DEA01008020002001B50449684600F05D
:10EB000065F9002801D0FEF79BF908BDD02100204F
:10EB100010B5097849B103220121FEF74DFF002805
:10EB200008D0BDE81040FEF78BB90088BDE8104062
:10EB3000FFF72EB910BD000030B58BB0002423497B
:10EB4000009400F0E5FB002811D101A91F4800F056
:10EB500083FB70B11E491D4800F06AFC08B1FEF746
:10EB60006FF91B4800DF002801D0FEF769F90BB0F0
:10EB700030BD0598164D102201692960818AA9804F
:10EB8000807DA871E81D0599FDF7E8FC112205F1CB
:10EB900018000199FDF7E2FC019850F8121F45F8A2
:10EBA0002A1F4168696000892881094800DF08B18F
:10EBB000FEF746F90120009004200890CDF824D0FB
:10EBC00007A90248079400F0FEF8CCE7D021002006
:10EBD0008829002070470000014908607047000044
:10EBE000CC21002030B58FB005461C216846FDF7CA
:10EBF000CEFC00249DF80000019440F018008DF830
:10EC000000000394049405940694A8798DF83600C6
:10EC100041F23150ADF834000C949DF830001421CD
:10EC200020F0FF008DF830009DF8310020F00F003B
:10EC3000401C20F0F00010308DF831009DF83200BB
:10EC400020F00600801C20F0080040F011008DF834
:10EC5000320007A8FDF79BFC0DA807900CA80890B0
:10EC6000ADF824401720ADF82640ADF828000B94ED
:10EC7000A88805F1100307AA6946A2DF0FB030BDCE
:10EC800030B58FB005461C216846FDF780FC002496
:10EC90009DF80000019440F004008DF800000394FA
:10ECA000049405940694A8798DF8360041F2325008
:10ECB000ADF834000C949DF83000142120F0FF00D2
:10ECC0008DF830009DF8310020F00F00401C20F03E
:10ECD000F00010308DF831009DF8320020F0060071
:10ECE000801C20F0180040F001008DF8320007A8C9
:10ECF000FDF74DFC0DA807900CA80890ADF8244036
:10ED00001420ADF82640ADF828000B94A88805F132
:10ED1000080307AA6946A2DF0FB030BD70B58EB0F8
:10ED20000E4605461C216846FDF731FC00249DF87F
:10ED30000000019440F002008DF800000394049458
:10ED400005940694A8798DF8360041F23450ADF858
:10ED500034000C949DF83000142120F00F00401C6A
:10ED600020F0F00010308DF830009DF8310020F0D8
:10ED7000FF008DF831009DF8320020F00600801C65
:10ED800020F0180040F001008DF8320007A8FDF7D0
:10ED9000FEFB0DA807900CA808900220ADF82400F7
:10EDA000ADF82640ADF828000B96A88805F12003A1
:10EDB00007AA6946A2DF0EB070BD48F29100704705
:10EDC00048F29100704748F2910070470A4A137860
:10EDD00048F208026BB1931D19B110B1007840B927
:10EDE00001E018467047054B1B6813B108700020FE
:10EDF0007047104670470000542100209C270020D7
:10EE00002DE9F04F054693B0FA48FF2407940078A7
:10EE10004FF0000A002853D0F74E306800284FD03A
:10EE200001A800F095FA08B1FEF70AF8281D059030
:10EE30002C20ADF818000027FF208DF806008DF873
:10EE400004700097EC4C28880C3CBB4610280FD06F
:10EE5000A8886A460221FFF7DBFC48B9009800EB5E
:10EE6000400104EB8101C97A8DF806108DF8050088
:10EE7000DFF884932888A9F14C091321A9F1C4086B
:10EE8000192874D010DC10281DD011285DD013284B
:10EE90006ED0142814D1009800EB400004EB8000E1
:10EEA000C07AFF287CD099E0D44A1A2876D01E2850
:10EEB00075D0522804D1B07A52F8201001A88847A2
:10EEC00013B0BDE8F08F4FF6FF766A460121304659
:10EED000FFF79EFC0028F3D10099022201EB4100CC
:10EEE00004EB8000827211228DF810208DF805103D
:10EEF000A9880181A9680160A9898180A97B8171A4
:10EF0000E87DC10708D0BB49083101EB500000780B
:10EF1000FF2809D0079007E0324607A905F108004D
:10EF2000FFF76AFD00280FD10099079801EB410116
:10EF300004EB8101C8728A7A42F008028A728DF865
:10EF4000060001A8FEF700FF6FE1009800EB40000B
:10EF500004EB8001887A20F002008872010708D54E
:10EF600000060FD5002101A8FFF7E6FC0AE0BDE08E
:10EF700043E09DF80600FF2804D001F027FAFF20A7
:10EF80008DF806000099102001EB410104EB81018E
:10EF9000887212208DF8100047E101E0FDE042E1A7
:10EFA0002A8A07A90020FFF727FD78B9009807995A
:10EFB00000EB400004EB8000C172827A42F008024C
:10EFC00082728DF8061001A8FEF7BEFE009800EBD5
:10EFD000400004EB8000C07AFF2804D00098C0EB0A
:10EFE000C00109EB810A00980023C0EBC00108EBC7
:10EFF0008102A888514686DF62E700988DF81010DC
:10F0000000EB400004EB8001887A40F00400887235
:10F01000CA7AFF2A0BD040F04000887216200023E5
:10F020008DF81000A8881A4685217FDF33E00DF1A6
:10F030001C0C48F2430300204FEA0802C0EBC00852
:10F0400002EB880898F81A80B8F1FF0F26D0401C10
:10F050000728F3D34FEA03070099CDF830B001EB4E
:10F06000410304EB8303DB7AC3EBC30302EB8302AC
:10F07000CDE90D2BC1EBC10209EB8201CDE9081BE3
:10F08000CDF83CB0CDF828B0CDF82CB0321DA88812
:10F0900008AB00217FDF0028AED1C6E00B78022B41
:10F0A00012D0C0EBC00302EB83034FF0FD0883F8DE
:10F0B0001A80D1F80080C3F81080B1F80480A3F85A
:10F0C00014808979997505E0C0EBC00102EB8101DC
:10F0D000FE238B768CF800000099079801EB410124
:10F0E00004EB81018DF80600C872B5E7707A20F054
:10F0F00001007072009E06EB460304EB8300817AE8
:10F1000021F00402827214218DF81010297A31B195
:10F11000510603D4C07AFFF793FC2F7A85E0697A11
:10F12000490739D59DF80610FF297ED042F0080224
:10F1300082726A7B920707D5C1EBC10508EB850295
:10F14000957E25F001059576C27AFF2A6DD014F8D8
:10F150002320022A0ED0C1EBC10208EB8201026813
:10F160000A6182888A8280798875887E20F0020010
:10F1700088760DE0C6EBC60209EB8200C1EBC10147
:10F18000428A08EB81000283817E21F001018176B1
:10F19000012101A8FFF7D0FB47E0287A0121B1EB5C
:10F1A000101F2DD100F00F00012829D1009800EB8D
:10F1B000400104EB8101897A090721D50E4900EB52
:10F1C000C000303901EB80001A210830FDF7DFF96B
:10F1D00016208DF81000009800EB400004EB800032
:10F1E000817A41F060018172707A40F002007072A1
:10F1F00017E00000542100209C270020E81702009F
:10F20000009800EB400004EB8000817A41F080011F
:10F21000817215208DF81000B07A52F8201001A8E4
:10F220008847002701E08DF810103A4604A901A88C
:10F23000FDF712FE9DF8100012287FF4DDAE009855
:10F2400000EB400104EB8101897A01293FF4D4AE3F
:10F25000FFF7F4FA34E600002DE9F04306462948AA
:10F260000C4689B0017848F2080000293FD0811D82
:10F27000F6B3ECB33178002939D123490025096868
:10F28000002934D0B078072838D2204FC0EBC00016
:10F2900007EB8000807EFF2830D0E560B07807F56E
:10F2A0008E79C0EBC00007EB8000C4E90405E84696
:10F2B000A5601448C4E90089B17807AA103001F0AC
:10F2C000E7F8002813D11C231A4607A9684601F065
:10F2D00089F900280BD1E560B178C1EBC10107EBDA
:10F2E0008101C4E90415C4F80080C4E9019500E077
:10F2F00002E009B0BDE8F0830846F8E748F21000E4
:10F30000F5E70000542100209C2700208C260020D7
:10F3100030B5044611B10878A0B902E048F20E00F9
:10F3200030BD0A480023006860B1084AFF200C3A4B
:10F33000887015890520A542F2D14B70D07A88706B
:10F34000002030BD48F2080030BD00009C2700209E
:10F3500030B1FF21017041708170C1700020704791
:10F3600048F20E00704700002DE9FF4105003AD039
:10F370002B4800240460447284722046FFF75EFA32
:10F38000274824213038FDF702F90026DFF8948061
:10F39000FF27304601F01AF808F80670761C072E91
:10F3A000F7D36020ADF804000720ADF806001E4832
:10F3B0001C4900900831684601F062F900280FD11D
:10F3C000184E0120083E3070287878B1BDF804004E
:10F3D000BDF80610484381B206F1100001F07EF836
:10F3E00004B0BDE8F08148F20E00F9E70F4F0025A8
:10F3F0000C48A9B202AA083001F04AF848B9C5EB96
:10F40000C50007EB800000231C2202A901F0EAF8E6
:10F4100008B13470E4E76D1C072DE9D3E0E7000084
:10F420009C2700205C210020ADF401008C260020E8
:10F430001B4A137848F20802F3B1931D18B111B1B9
:10F440000378CBB901E018467047164B1B689BB197
:10F45000837848F20502FF2B10D01348C3EBC30397
:10F4600000EB8300837E9B0706D402690A60828AD0
:10F470008A80807D88710022104670474078FF287E
:10F48000FAD000EB400307480C3800EB8300837A86
:10F490009B07F1D502680A6082888A808079E9E753
:10F4A000542100209C2700208C2600202DE9F047C5
:10F4B0008046544892B01E4600681A9F924689467C
:10F4C000002852D0602F50D86846FFF741FF08B19E
:10F4D000FDF7B6FC00248DF800408DF80440CDE91E
:10F4E00005762546A9B20FAA474800F0D1FF28B9F2
:10F4F00008220FA94046FDF75CF8F0B16D1C072DFE
:10F50000F0D300BF9DF80200FF282ED02025402216
:10F510000DF11008B9F1030F12D0DFF8F0C01C2371
:10F52000A6EB0C01B1FBF3F70121072F2BD2CDF88D
:10F530000880BAF1000F1BD020E08DF80250E1E7FF
:10F54000602F02D08DF8042001E08DF804509DF862
:10F55000040040F0030000BF8DF80400524601A9EA
:10F560006846CDF80880FDF777FC12B0BDE8F0875B
:10F57000254A8140103A52681142F6D002F022F832
:10F580008DF8045033E01F484C38371AB7FBF3F3BB
:10F5900043B11C30331A2425B3FBF5F3C3B18DF806
:10F5A0000420E2E71749CDF808808DF804508DF863
:10F5B00001400C310790CDE90B419DF80200C0EBF2
:10F5C000C0000CEB8000089007A8CDE905500EE0C4
:10F5D0008DF801408DF803100A4930220C398DF85E
:10F5E0000420897A890702D42421FCF7D0FF9DF8F2
:10F5F0000400B9F1020F02D040F00200ACE740F085
:10F600000100A9E79C270020642100208C2600200F
:10F61000164A10B512785AB148F20E0258B151B1DB
:10F620000B6843B1124A14683CB148F2040010BDA3
:10F6300048F2080010BD104610BD0D4C1360103C80
:10F64000D1F8053063614B7A23760979917223F002
:10F65000050141F002011172D17921F0040141F05C
:10F660000301D17100210170084610BD5421002012
:10F670009C2700200E4910B54A788C780023A242BE
:10F6800012D0521CD2B24A70022A00D14B70084AE2
:10F690004B78183252F8232002600869104420F099
:10F6A0007F400861012010BD0360002010BD0000F4
:10F6B000AC210020002808D0112801D0FDF7E8BBBC
:10F6C0000248416841F00801416070477421002000
:10F6D00010B51F4C204621784068012910D002291E
:10F6E0002DD0032932D1000725D46069401C606108
:10F6F00000F00CFAD8B12078BDE8104001F012BC3F
:10F70000000718D41348A28B017801EB810100EBAC
:10F710008100C188891A0904090CC18003D0BDE8A1
:10F72000104001F00DBDBDE81040FEF787BFBDE8F9
:10F730001040FEF71FBFBDE8104000F0B9BB0648FF
:10F74000617850F82100BDE81040004710BD00006E
:10F7500074210020382800201C18020028DFFFF741
:10F76000A9BF29DFFFF7A6BF20B10349496D01609A
:10F770000020704703207047302900200EB516A1E5
:10F780009DF8080020F00F00401C20F0F000103021
:10F790008DF808000C2202A87CDF08B1FDF750FBB1
:10F7A0004FF4886078DF08B1FDF74AFB00204FF482
:10F7B000C87100900190ADF80400ADF800104A0047
:10F7C000ADF80220ADF8061068467ADF002801D0B7
:10F7D000FDF736FB0EBD000056535445414D5F53B7
:10F7E0004D41525400000000002070470020704737
:10F7F000002070472DE9F0474178DFF8A4900546D6
:10F8000001EBC10209EB8200002401EB410109F187
:10F81000240A4368274626460AEB810163B191F822
:10F820000AC05FEA0C6807D55FEA4C6C04D459F84B
:10F83000226000F108049FB20889D04633463A4658
:10F840002146A9DF48F241090B281CD000B14846E7
:10F85000012E16D168784FF6FF7200EB400008EBDE
:10F8600080000C210089A7DF00280AD0A0F54051B4
:10F87000023913D0082811D0891E0FD011280DD0BD
:10F880000020BDE8F0876878012300EB400008EB1A
:10F8900080003A4600892146A9DFDBE74846F0E7C9
:10F8A0006C27002070B50C46014660780A4D00EBCD
:10F8B000C00005EB80003823242200F093FE0028CE
:10F8C00008D1617801EBC10105EB81014A68521C46
:10F8D00000D14A6070BD00006C2700202DE9F04186
:10F8E00088B0804603271A20ADF81C0048782A4EBD
:10F8F00000EB400006EB80000D4600893B4607AA5E
:10F900006946AADF28BB6878A6F1240400EBC00092
:10F9100004EB8000BDF81C2069460830FCF749FE66
:10F920000028687807D000EBC00004EB800149682C
:10F9300081B11A4E0FE000EB400106EB8101897A9C
:10F94000890724D400EBC00004EB80002421FCF7DD
:10F950001EFE1CE0124E44F820706878BDF81C2092
:10F9600000EBC00004EB800069464260687800EB61
:10F97000C00004EB80000830FCF7F0FD6878382305
:10F9800000EBC00004EB800124224046B04708B0E1
:10F990000020BDE8F081000090270020FD07020054
:10F9A00035070200FFF726BFFFF77CBFFFF796BFC2
:10F9B0002DE9F041124E07460125BD403068FDF7A4
:10F9C00013FB00280DD10F4C2069284207D138467F
:10F9D00000F0D6FB0028E06805D0284304E0A843E7
:10F9E0002061BDE8F081A843E060206928432061E0
:10F9F000A1683068BDE8F0410022FDF7B5BA00000B
:10FA0000301802009821002070B51B4C20790007A7
:10FA10002DD41A48017801EB810100EB81052E6994
:10FA200000F0B5FDE9882A89761E11443144B1FB06
:10FA3000F0F02169002549B16169814206D1E56094
:10FA4000606840F001006060002008E000F05EF8AF
:10FA500010B10220E56002E0206920B10320BDE87A
:10FA6000704001F0B1BBBDE87040FEF783BDBDE85A
:10FA7000704001F09FBB0000742100203828002056
:10FA8000F8B51A4C207800282ED0206928B100261D
:10FA9000E06820B1002526B110E00126F8E7012535
:10FAA000F9E7684652DF052803D020B1FDF7C8F911
:10FAB00004E0012602E021690098884785B9608842
:10FAC000ADF800006946A06861DF052803D020B1C9
:10FAD000FDF7B6F904E0012502E0D4E90201884708
:10FAE000002EDED0002DD6D0F8BD0000D42100209D
:10FAF000054940880A88904204D34988884201D841
:10FB00000120704700207047F820002070B50E4893
:10FB1000017801EB810100EB8104256900F037FDDC
:10FB2000E18822896D1E11442944B1FBF0F1074898
:10FB300042698A4205D301D1006910B14FF000003B
:10FB400070BD4FF0010070BD3828002074210020E6
:10FB5000800701D0002070470120704730B514881D
:10FB6000E51C9D4201D90C2030BD02250D5513889E
:10FB70001C245B1C9BB21380CC5413885B1C9BB26F
:10FB80001380012807D0022807D0032807D00428B3
:10FB900007D0072030BD002004E0012002E0CD5452
:10FBA00001E00320C8541088401C1080002030BDA4
:10FBB0000348017AC90702D00078FEF79FBA704760
:10FBC000B42000202DE9F047DFF8ACA0DAF80C00F3
:10FBD0009AF8004080469AF80460DAF80890DAF85B
:10FBE00010703AE009EBC4052A7833E002EB4201D9
:10FBF0006B68521C03EBC101AB78D2B2934200D1C7
:10FC000000220B78022B02D0032B23D11FE0D1F866
:10FC100004C00346014603E0614503D00B46C969B1
:10FC2000C1B1F9E7B1B18B4205D1C06918B9134F21
:10FC30000126BE600027D1F800C0C969D96149B169
:10FC40000B6863440B6005E00174C06900E00021AB
:10FC50000028F9D169789142C8D1641EE4B2C1D2BA
:10FC6000CAE903078AF80460404502D00120BDE8D4
:10FC7000F0870020FBE70000AC21002000100140CD
:10FC80002DE9F04705462F48002680460778D0F832
:10FC90000C904BE0D8F8080000EBC70440E002D01D
:10FCA0002846ED691EE02078616800EB4002401CA8
:10FCB000C0B201EBC2012070A278904200D1267040
:10FCC0000A784868012A2DD1027C5ABB8A684260B2
:10FCD000CA6882600A69C2604969816198F8041043
:10FCE00001B146604268D8F81030DFF85CC0D11A24
:10FCF00021F07F41614502D28268114406E0991AE1
:10FD0000826821F07F418A4202D9511A016000E0E5
:10FD100006604660012186600174C66101F0D8FA70
:10FD2000002DBCD1207861788842BCD17F1EFFB203
:10FD3000B0D2D8F80C10494502D00120BDE8F087B8
:10FD40000020FBE7AC210020FFFF7F00002398B0DC
:10FD50004D4A05211846FDF7BFF808B1FDF770F8C8
:10FD60004A4A01214A48FDF7A5F808B1FDF768F8AD
:10FD70004748484A0121001DFDF79CF808B1FDF7EE
:10FD80005FF8454A40F6CD410320FEF765F908B11A
:10FD9000FDF756F869460020FEF740F808B1FDF778
:10FDA0004FF89DF80000022865D00020FEF76EFE97
:10FDB000FDF78CFFFFF7E2FC382101A8FCF7E7FB19
:10FDC00002208DF8040001248DF8064006208DF8ED
:10FDD0000700324803250690ADF8145024210FA8DF
:10FDE000FCF7D5FB8DF84840282000241390B42060
:10FDF000009414902A4B0FAA214601A8FDF718FA87
:10FE000008B1FDF71DF800F0BFFF00F005FF1C2151
:10FE10006846FCF7BCFB4FF42030CDE900404FF4BE
:10FE2000702002901F488DF80C504089ADF80E00EC
:10FE30001D4805901D4806908DF810406846FDF756
:10FE40008BFC08B1FCF7FCFF114C00224FF4803111
:10FE50002068FDF789F808B1FCF7F2FF4FF4004184
:10FE600000226068FDF780F808B1FCF7E9FF032085
:10FE7000FDF7F6FA02E0012098E748DF0028FCD001
:10FE8000FCF7DEFFF9E700002C22002089D10100F9
:10FE90007C17020059090200C1DF0100A8200020E0
:10FEA0008102020054240020A5020200B1E70100F3
:10FEB0000348416821F008014160007801F032B840
:10FEC0007421002070B5144682880E4605462088AD
:10FED000111D0144921C994201D8FE2A01D90C201F
:10FEE00070BD521C32542088FF21401C80B22080FB
:10FEF00031542088401C80B220808119288801F06C
:10FF00005BFB2188084480B22080AA8842B1A9689E
:10FF100041B13044FCF722FB2088A98808442080A6
:10FF2000002070BD072070BDF8B50E46017814465C
:10FF30000546012901D1687830B12088821C9A4297
:10FF40002DD8012902D006E00720F8BD69780144C8
:10FF5000891C994223D8181A801E87B2ADF8007008
:10FF60002188B01C084469467DDF0028EDD128783F
:10FF7000022805D1BDF80010B94201D809210AE0D4
:10FF80000821012805D16878B84202D8ADF80000F0
:10FF900001E0ADF80070BDF80000FE2801D90C208A
:10FFA000F8BD2288401CB0542088401C80B22080BC
:10FFB00031542088401C2080BDF800100844208067
:10FFC0000020F8BD002070470020704700207047D7
:10FFD00031B540F2E73404E0401E00902046FCF7C3
:10FFE00019FA00980028F7D138BD4907090E0028F2
:10FFF00006DA00F00F0202F1E02282F8141D03E09D
:020000040002F8
:1000000000F1E02282F8001400F01F02012191406B
:100010004009800000F1E020C0F88012C0F8001113
:10002000704700002DE9F0478846814600F0ECF962
:100030000124224E0028484618D0FEF7C5F9304466
:1000400090F848008009032802D0012806D007E074
:100050001B48006804FA09F4204201D1022100E0A3
:1000600003214846BDE8F04700F0D9B800F0D8F9C0
:10007000002820D04846FEF7A7F90546114F4FF457
:10008000807007EB850100EB8500D1F8102580B268
:1000900042F00102C1F8102500F0D0F8B8F1000FCD
:1000A00009D04846FEF790F956F82000002802D003
:1000B000AC40C7F80443BDE8F0870000C02700202B
:1000C00010050050006000402DE9FC41DFF8A480DD
:1000D000044608EB0400002790F930001346C017CF
:1000E0000E46401C01D0082740E0F2781946204611
:1000F000FEF746F90546401C37D0B07848B1A0005D
:1001000000F1A040D0F8001721F00201C0F800175C
:1001100007E000217378204600910A46019100F023
:100120006DF8F078C0B11448317800EB8500D0F854
:100130001025124B1A40C0F810254FF4F8524FF416
:10014000403302EA042203EA01410A43D0F81015C1
:100150000A43C0F8102509E008EB0500327810F8D2
:10016000481F41EA8211017000E004273846BDE8CB
:10017000FC810000C027002000600040FFE0FCFF81
:1001800003490968C14011F0010000D00120704707
:100190001005005070B5124D95F8540008B10820B4
:1001A00070BD0020411E2A18401CC0B282F83010D9
:1001B0002028F8D300242046FEF7D4F8641CE4B2CB
:1001C0000C2CF8D306210846FFF70FFF05494FF026
:1001D0000040C1F80403012085F85400002070BDE0
:1001E000C027002000600040034890F85400002819
:1001F00000D0012070470000C027002030B541EA40
:100200004201DDE9034541EA8301800041EA04211E
:1002100000F1A04041EA0541C0F8001730BD800060
:1002200000F5E06000F1A040026822F44032026074
:10023000026842EA0141016070470000034908B5C5
:100240000844002101600068009008BD0060004083
:1002500002494058012800D000207047006000404B
:100260004058002800D001207047D0F8040308400F
:1002700000D0012070474058002800D0012070476E
:1002800010B550B103280CD10220FDF7D9FE00288B
:1002900007D0BDE81040FCF7D3BDBDE8104000F02A
:1002A0002DBE10BD0078002807D104483B214088AE
:1002B00076DF002801D0FCF7C3BD70478020002006
:1002C000F0B58BB001274FF0020E05468DF80CE01B
:1002D0008DF812700889ADF814004889ADF8160041
:1002E00001F10C00002608960690ADF820E007A862
:1002F000ADF8226009900C46A98A288808AAA5DFD3
:1003000018B1E96AC9B1884717E09DF81C0010F0E0
:10031000010F12D0ADF81060288803A9A8DF0028CB
:1003200012D1217B04F10D00092943D2DFE801F04D
:10033000420E1D2326282A402C0040F2FD10ADF865
:100340001000288803A9A8DF0BB0F0BD8DF800606D
:100350000DE006221DE000BF8DF808700190AA6A2A
:100360006946284690470020EEE78DF800706289C4
:10037000022AF1D2EDE78DF800E0F0E7032012E069
:10038000042010E005200EE06089032805D2032236
:1003900008212846FDF710FBD6E7B4F80D00ADF8AC
:1003A000040018B106208DF80000D8E70720FAE70E
:1003B0000920F8E70322ECE70021425C0AB10120A2
:1003C0007047491C0629F8D30020704770B50546D0
:1003D000C0EBC5010B4800EB81040020C4F81100FC
:1003E000A4F8150020461021FCF7D1F8FF20207456
:1003F000A0764FF6FF7020832846BDE8704001F0DC
:10040000E1B800008C2600200449084490F930002F
:10041000082801DB0120704700207047C02700201A
:100420000449084490F93000082801D2012070479F
:1004300000207047C027002070B50D00044602D18F
:100440000020FCF7FDFC14B90020FCF7F9FC28782B
:10045000207069886170090AA170A988E170090A91
:100460002171E8886071000AA07170BD06490979A0
:10047000490701D40820704720B104494978016038
:10048000002070470E20704774210020382800207B
:1004900030B5104B1B795B0701D4082030BD18B173
:1004A00012B104687CB901E00E2030BD0A4B1D6812
:1004B0004DB140681D8901FB050059685B8903FB4C
:1004C0000511814201D8072030BDC2E9004000205B
:1004D00030BD00007421002004290020F8B5054635
:1004E00021480E460079400701D40820F8BD15B117
:1004F000286870BB01E00E20F8BD1C4C0027206866
:1005000038B361892289606801FB02016868814211
:100510001FD9FFF71DFB70B1D5E9000200EB4000C9
:1005200004EB800043680189D41AB4FBF1FC01FBA1
:100530001C4474B901E01020F8BDB6FBF1F401FBD6
:10054000146434B92EB14089324400FB0130824238
:1005500001D90720F8BD3346002229460320009721
:10056000FEF742F8F8BD00007421002004290020A5
:1005700010B54FF010204469601C04D000F007F85B
:10058000B4FBF0F010BD4FF08050406910BD4FF04B
:100590008050006980B2704770B51048002425462D
:1005A000047044702846FEF70FF86D1C0A2DF9D32D
:1005B0000B4D6C80FFF7DCFF861EFFF7E8FF46431C
:1005C0000648AE60CC306C610460048144812C70BC
:1005D000AC610420EC616860002070BD3828002008
:1005E000742100202DE9F843804623481F46164613
:1005F00000790D46400702D40820BDE8F8832DB1EC
:10060000B8F1000F02D0286898B901E00E20F4E795
:100610001A4C206868B162892089616802FB001168
:100620006A68914205D926B1B04202D3F1198142DC
:1006300001D90720E1E74046FFF78AFAD0B13846F2
:10064000FFF786FAB0B16868FFF782FA90B1686880
:100650003246C1194046FBF781FF00962868002208
:1006600000EB4000434654F8204002212846A047B2
:100670000020C2E71020C0E77421002004290020D8
:100680002DE9F041294D04460E462879400702D451
:100690000820BDE8F081ECB1E6B12068D0B1FFF7E9
:1006A00076FF0146A088814212D3102810D3E0883B
:1006B00070B1FFF75DFF471EFFF769FF4743E28810
:1006C000A188A86802FB0102974201D3890703D0E1
:1006D0000720DEE70E20DCE76988012924D0C6E97F
:1006E0000010134A01EB410302EB830148602068CC
:1006F00042F82300A0880881E0884881FFF747FF7F
:10070000A188E288401E01FB0204FFF740FF94FB32
:10071000F0F4FFF73CFFA96804FB0010A8606888AC
:10072000401C68800020B4E70420B2E77421002058
:1007300004290020F8B504461C481E4615460079D9
:100740000F46400701D40820F8BD1FB114B120683E
:1007500098B901E00E20F8BD1548016869B14289D9
:100760004168008902FB00116268914205D925B1F8
:10077000A84202D3A919814201D90720F8BD384601
:10078000FFF7E6F978B13046FFF7E2F958B1606853
:10079000FFF7DEF938B12B463A4621460120009694
:1007A000FDF722FFF8BD1020F8BD000074210020E5
:1007B0000429002010490246087800281AD004288D
:1007C00018D0022A14D0032A14D10A7912070FD4A0
:1007D0008A69521C8A61B2F57A7F06D0022801D05C
:1007E00000F0A0BB487800F0EFBC0D20FCF750BB38
:1007F000FEF76EBF7047000074210020F8B5044674
:100800001C481E46154600790F46400701D40820B3
:10081000F8BD1FB114B1206898B901E00E20F8BDF1
:100820001548016869B142894168008902FB0011DD
:100830006268914205D925B1A84202D3A919814223
:1008400001D90720F8BD3846FFF782F978B1304664
:10085000FFF77EF958B16068FFF77AF938B12B4697
:100860003A46214604200096FDF7BEFEF8BD102052
:10087000F8BD00007421002004290020104810B5A4
:100880004088A0F57F41FF3905D0132176DF03E0D2
:10089000FCF7D6FA02E074DF0028F9D10020FDF75A
:1008A000CFFB08B1FCF7CCFAFCF7C4FF08B1FCF7AA
:1008B000C7FABDE810404FF4FA70FFF789BB00009B
:1008C0008020002070B590B00E4605461C21684679
:1008D000FBF75DFE00249DF80000039440F0020049
:1008E0008DF8000001208DF83600019442F6542066
:1008F000049405940694ADF834000C94F0798DF8C6
:100900003000307A8DF831009DF83200142120F04B
:100910000600801C20F019008DF8320007A8FBF7B4
:1009200036FE70898DF83800000A8DF839000DA860
:1009300007900CA808900220ADF82400ADF828001C
:100940000EA8ADF826400B90A88805F10E0307AA63
:100950006946A2DF10B070BD1FB501248DF80040BC
:1009600000208DF801008DF802001849184800F0A9
:10097000BAF9ADF80400154915481031083000F0F7
:10098000B2F98DF80600114911482031103000F0FD
:10099000AAF9ADF80800BDF80400B0F5407F01D910
:1009A0008DF80240094869462C38FDF725F90028E2
:1009B0000BD0082809D0A0F54051043905D043F2E6
:1009C0000141884201D0FCF73BFA1FBD8024002082
:1009D0009020002070B594B00024064607949DF83E
:1009E0001C000D4620F00F00401C20F0F0001030DD
:1009F0008DF81C0008798DF81D009DF81E001C2143
:100A000020F00600801C8DF81E006846FBF7BFFD35
:100A10009DF80000019440F010008DF8000007A838
:100A2000CDE9044001208DF84E00039442F6532096
:100A30000694ADF84C000D9468798DF83400A879CF
:100A40008DF835009DF83600142120F00600801C3A
:100A500020F0180040F001008DF8360008A8FBF7E0
:100A600096FD13A808900DA809900EAA05F10C0197
:100A7000304600F010F8ADF828001420ADF82C0036
:100A80000EA8ADF82A400C90B088B31D08AA69469C
:100A9000A2DF14B070BDF0B58C885470240A0646ED
:100AA00094708879D070347E00230420E40707D046
:100AB0000C782CB10C891471240A0123547106207E
:100AC000347EA4070DD54C785CB11518CC682C7019
:100AD000270A6F70270C240EAF7043F00203EC70EE
:100AE000001D347E640703D5897809B143F00403FF
:100AF0001370F0BD70B5012670044FF0E0210025A1
:100B0000C1F88001084C4010C4F84803C4F8080339
:100B100066602F20FBF7BAFCA660044C2F202561ED
:100B2000FBF7B4FCE57070BD00100140AC21002063
:100B300009480A490022C37DC1F8082143B1D1F810
:100B40001815437EC268D154417E491C41767047D6
:100B5000D1F8180570470000182800200020004038
:100B60001FB501228DF8080004488DF8002001917E
:100B7000D0E90012684690471FBD000018280020E9
:100B800008B502490020009108BD00008020002027
:100B900010B50121202803DA1D4A8140114004E0EC
:100BA000402803DAA0F12002914041B1002809DA7F
:100BB00000F00F0101F1E02191F8141D06E042F26E
:100BC000010010BD00F1E02191F800144909082945
:100BD00014D299B1012911D004290FD005290DD0C3
:100BE0000C4A946800F01F0301219940400944B168
:100BF00052F820300B4342F8203007E042F2020066
:100C000010BD800000F1E020C0F80011002010BDF0
:100C1000FC06FFBCC429002070B51D4851210160AD
:100C2000642141600121816001730146194800F08F
:100C30004FF8174880211030002401604FF4D06134
:100C400041604FF4C071816004730146114808305F
:100C500000F03EF80E482821203014250160A02124
:100C6000C0E90115047301460A48103000F030F85D
:100C700007487D213030C0E90051052181600473AF
:100C80000146BDE870400348183000F021B800006C
:100C9000702400208820002010B503680A68896845
:100CA0009C1A8C4202D9591A016010BD01210260C0
:100CB000017110BD10B54B68026889689C1A8C429E
:100CC00002D91144016010BD00210360017110BD03
:100CD0000A7B1AB149680160002102E009680160DD
:100CE00001210171704710B50446007900282046A3
:100CF00002D0FFF7DFFF01E0FFF7CEFF206810BD55
:100D00002DE9F0410746806A14468846C8B300259D
:100D100031E000BFB96A05EB450001EB8006B08801
:100D2000801CFE2802D90C20BDE8F0812288401CDE
:100D300008F8020020881622401C80B2208008F8A3
:100D400000202088401C80B2208000EB0801308801
:100D500000F032FC2188084480B22080B28842B181
:100D6000B16871B14044FBF7F9FB2088B1880844B1
:100D700020806D1CEDB297F82C00A842CAD8002044
:100D8000D2E7FFE70720CFE730B59FB01C216846C8
:100D9000FBF7FDFB0520ADF80A009DF804000024D8
:100DA00020F00F00401C20F0F00010308DF80400FF
:100DB0009DF80500012520F0FF008DF805009DF845
:100DC00006008DF80C5020F0FF008DF806009DF80D
:100DD0000700009420F00F00401C20F0F0001030BD
:100DE0008DF807009DF808008DF80D4020F0FF00F9
:100DF0008DF808008DF80E40ADF81440694639486A
:100E0000FCF7D4FE08B1FCF71BF8142107A8FBF788
:100E1000BEFB9DF82900079420F00F00401C20F035
:100E2000F00010308DF829009DF82A008DF8205030
:100E300020F00F00401C20F0F00010308DF82A0048
:100E40009DF82B00099420F0FF008DF82B009DF8F1
:100E50002C0007A920F00F00401C20F0F0001030FB
:100E60008DF82C0064208DF828001E481838FCF7F7
:100E700024FC08B1FBF7E4FF40210CA8FBF787FB3B
:100E800019A10CA8FCF713FF9DF86C0020F00F00CF
:100E9000401C20F0F00010308DF86C009DF86D00C3
:100EA00020F0FF008DF86D000CA8FCF7B5FD08B12F
:100EB000FBF7C6FF0E481C94CDE91D040948ADF8A8
:100EC00070501CA95C30FCF7EBFC08B1FBF7B8FFD5
:100ED0000848FDF781FE08480078FDF70DFE1FB0B9
:100EE00030BD00005424002056535445414D0000AD
:100EF00011EB01007D0802008020002010B50020C9
:100F0000FDF79EF808B1FBF79BFFFCF7E5FF08B182
:100F1000FBF796FF3CDF002803D0BDE81040FBF74D
:100F20008FBF10BD0C49087040B101280FD00228B6
:100F30000FD003280FD14869FEF710BC002088614C
:100F4000C86106484078002805D0FDF723BB00F0B3
:100F5000F7B800F053B870477421002038280020FB
:100F600018B10349C860002070470E207047000088
:100F7000D42100201CB5034901910091694660DF2E
:100F80001CBD00008020002070B50E4605461446AA
:100F900014211046FBF7FBFA01202080002121617B
:100FA00021732672657205B1A072002070BDFBF737
:100FB00035BF000030B409B18C0702D0072030BC27
:100FC0007047074C0125A16062800649636010DF0D
:100FD0000028F4D1257030BC1620FFF7D9BD0000E1
:100FE000D4210020AF0F020018B10349086100208E
:100FF00070470E2070470000D42100202DE9F041F9
:10100000164C606820F0010060601548017801EB23
:10101000810100EB81063569FFF7B9FAB5FBF0F7FE
:101020006761FFF7B4FAF1886D1E2944B1FBF0F057
:101030008742606802D140F0020001E020F0020027
:1010400060602079E16800F00200084304D00020CD
:10105000BDE8F04100F0B8B80220F9E774210020A3
:101060003828002001484069FEF778BB7421002031
:1010700010B5FFF77DFA441EFFF789FA4443FFF7E6
:1010800086FA05494A69521E5043CA682146BDE89E
:101090001040FEF766BB0000742100202DE9F041EE
:1010A0001048017801EB810100EB81042569FFF70D
:1010B0006EFAE188228911442944B1FBF0F200FB69
:1010C0001216FFF755FA471EFFF761FA07FB00619A
:1010D000E08822891044044A28441269BDE8F0419E
:1010E000FEF73FBB382800207421002010B5FFF721
:1010F0003FFA441EFFF74BFA4443FFF748FAB4FBAC
:10110000F0F0BDE81040FEF729BB000070B5FFF716
:101110003EFA8608FFF73BFA0749496900FB01F4EC
:10112000FFF726FA451EFFF732FA6843324621469A
:10113000BDE87040FEF715BB742100200020704709
:1011400070B51448017801EB810100EB8104241D86
:10115000FFF71DFA6188104E884211D2FFF717FA87
:1011600061880D1AFFF713FA8208A188E068084425
:10117000216928442944FEF7F4FAFFF708FA07E04A
:10118000A288E06810448A082169FEF7EAFA6088BC
:10119000F06170BD382800207421002004480079D7
:1011A000000702D4012000F00FB800F003B80000DF
:1011B000742100200348416821F008014160407813
:1011C00000F002B87421002002494870024951F829
:1011D00020000047742100200818020010B50446C2
:1011E000FFF7E8FA2046BDE81040FCF7EFB870B50D
:1011F0000C00054602D10020FBF722FE15B90020A5
:10120000FBF71EFE207828702088000A687020688E
:10121000000CA8702068000EE87020792871207AF0
:1012200068712089000AA871A068000CE87170BD7F
:1012300003480079000701D4FDF79CB9FFF7BABF56
:10124000742100202DE9F84F204C00256846D4E990
:1012500003B6FEF70FFA8046FEF7B4FC0746A94630
:10126000B8F1000F25D00023009ACC46E06819E0C1
:1012700007680146974202D9BA1A026014E0C1F821
:1012800000C0D1F80C80D21BC8693B448A46B8F133
:10129000000F07D0F71827F07F47C1E90178CAF897
:1012A0001C500D460028E3D1E0602846FEF7E8FC1C
:1012B00004E02846FEF7E4FC00B917B15846FDF7F4
:1012C000DDF984F80490BDE8F88F0000AC2100201F
:1012D0000D4B10B5D96831B102680C68A24204D830
:1012E000A21A0A60C161D86010BD0B4603E00B462C
:1012F000C969121B21B10C689442F8D3A41A0C607E
:101300000260C161D86110BDAC2100202DE9F0411F
:101310001D4DEC68002C35D01C4800270068296959
:10132000B846401A20F07F462068B04215D82246C1
:10133000361A0744E469107C68B182F810806B6942
:1013400033B1D2E90501984728B1FBF779FD02E0F6
:10135000D2E905108847002CE6D16978A878814247
:1013600006D1401CC0B2A870022801D185F80280C5
:101370000548A978183040F82170BDE8F0411420E4
:10138000FBF70EBABDE8F081AC2100200415014046
:10139000064A0020C2F81C010548838A8168C95C9E
:1013A000838A5B1C8382C2F81C15704700200040B2
:1013B000182800201FB500218DF8080005488DF879
:1013C0000010826801928175D0E90012684690474A
:1013D0001FBD0000182800202DE9FF413E4D4FF4AD
:1013E00000712846FEF741FF01273C4C4FF401787D
:1013F000002600B34FF492712846FEF731FFD0B1BA
:10140000C5F82461C5F80883A07E00B96F6002208A
:101410008DF80000D5F88004C5F880040390E07DC5
:101420008DF80800E0680190E6752676D4E9001290
:101430006846904724E004212846FEF716FFF8B1DD
:101440004FF484712846FEF70BFFC8B1FFF770FB1D
:10145000E07D617E884213D1227E3AB1607EE168F0
:10146000E2752269E2602676667607E0A07E00B922
:101470006F60C5F80883E675607EE168FFF770FB72
:101480004FF48E712846FEF7EBFE58B1A18AA07D7D
:10149000814202D2FFF77CFF04E0C5F81C6108B16D
:1014A000FFF788FF4FF4A2712846FEF7D9FE002807
:1014B0000FD0C5F84461A07E00B12F60E07D002808
:1014C00007D0E675607EE16804B0BDE8F041FFF743
:1014D00047BBBDE8FF810000002000401828002025
:1014E0007FB5334C4FF492712046FEF7C4FE314D68
:1014F0000026B0B1C4F8246102208DF80000D4F8B1
:101500008004C4F880040390D4F83C058DF80800EA
:10151000E8680190EE752E76D5E90012684690478E
:101520001FE04FF488712046FEF7A5FEC8B1C4F84D
:101530001061D4F83C05E97DC0B2814211D12A7E08
:101540005AB1E968D4F8003223F02003C4F800321D
:10155000EA752A69EA602E7601E0EE75E968FFF720
:10156000FFFA4FF4A2712046FEF785FE50B1C4F891
:101570004461E87D30B1EE75D4F83C05E968C0B24D
:10158000FFF7EEFA4FF490712046FEF774FE002844
:101590000CD0C4F82061A87D002807D0D4F84C05F1
:1015A00004B0C0B2BDE87040FFF704BF7FBD0000CB
:1015B00000200040182800200870000A487002200F
:1015C0007047000001218140024842688A4342601E
:1015D000704700005421002038B515494888A0F50F
:1015E0007F42FF3A23D04A78124C521CD2B24A7042
:1015F000237B93420AD3091D75DF002817D0A16908
:10160000002914D001B0BDE83040084700254D70D6
:10161000217C29B13B2176DF10B1A16901B1884756
:101620006169002903D08DF800506846884738BDAD
:10163000F420002070260020EFF30580C005C00DC7
:1016400013D0103840B2002806DA00F00F0000F185
:10165000E02090F8140D03E000F1E02090F8000481
:101660004009022803D0062803D00220704700203A
:1016700070470120704742788378521CD2B293425F
:1016800000D100220378934201D1002070470A70F4
:101690004168407800EB400001EBC00070472DE945
:1016A000FC411646DDE90854CDE900541F4680464A
:1016B000022200F00CF8002807D1CDE900543B4687
:1016C00010223146404600F002F8BDE8FC812DE9C9
:1016D000FC5F0026DDE90C4B994692468E4680461B
:1016E0002788354630E0D8F80400002200EB85005A
:1016F00069460068019001A865DF002830D19DF897
:10170000000050451FD10EB1002100E002212288C7
:1017100008441118594522D846B9521C90B220806D
:1017200009F800E02088401C20800126218801A8BB
:1017300001EB0902694665DF002811D120889DF878
:101740000010084420806D1CB8F80000A842CADCD4
:1017500056B12088C01B401E80B2FF2802D90C2041
:10176000BDE8FC9F09F807000020F9E7017911B9ED
:10177000007B002800D0012070470000EC210020F1
:101780000C22002001000007E0240020002500209A
:101790002C2500200D0000000E0000000F000000AE
:1017A000100000000D000300EDDE01000E0003003C
:1017B000EDDE01000F000300EDDE0100100003006C
:1017C000EDDE010050260020CDFF0100DDF8010014
:1017D000F1F70100ADF90100C9FF0100A5F8010012
:1017E000EDF70100A9F90100C5FF0100F5F70100BF
:1017F000E9F70100A5F9010023D1BCEA5F782315C0
:10180000DEEF121200000000ED1002000D110200C8
:10181000651002009D100200711002009D1102006F
:10182000B9E8010065E801003112020009FA01007F
:10183000102900200300000058180200802000201A
:101840006C010000F0C5010078180200EC210020B6
:10185000E4270000B4CA0100310325FFFF0C2A145D
:101860001801000F1801000A180103EFFFFF041B05
:08187000D5EB011490D0030038
:040000050001C40131
:00000001FF
