:020000040001F9
:10C00000904900208DC4010095C4010097C401002F
:10C0100099C401009BC401009DC401000000000000
:10C020000000000000000000000000009FC40100AC
:10C03000A1C4010000000000A3C40100A5C40100C8
:10C04000A7C40100A7C40100E5C90100A7C40100FD
:10C05000A7C40100A7C4010081C50100A7C4010055
:10C06000A7C40100A7C40100A7C40100A7C4010020
:10C07000A7C40100A7C40100A7C40100A7C4010010
:10C08000A7C401002DC70100A7C40100A7C4010077
:10C0900051C70100A7C4010055C70100A7C4010092
:10C0A000A7C40100A7C40100A7C40100A7C40100E0
:10C0B000A7C40100A7C401000000000000000000A8
:10C0C000A7C40100A7C40100A7C40100A7C40100C0
:10C0D000A7C40100A7C40100A7C40100000000001C
:10C0E0000000000000000000000000000000000050
:10C0F0000000000000000000000000000000000040
:10C10000000000000000000000000000000000002F
:10C11000000000000000000000000000000000001F
:10C40000DFF80CD000F08CF8004800473DEF010049
:10C4100090490020401E00BF00BF00BF00BF00BF0A
:10C4200000BF00BF00BF00BF00BF00BF00BF00BF14
:10C4300000BF00BF00BF00BF00BF00BF00BF00BF04
:10C4400000BF00BF00BF00BF00BF00BF00BF00BFF4
:10C4500000BF00BF00BF00BF00BF00BF00BF00BFE4
:10C4600000BF00BF00BF00BF00BF00BF00BF00BFD4
:10C4700000BF00BF00BF00BF00BF00BF00BF00BFC4
:10C4800000BF00BF00BFC5D170470000064880470D
:10C4900006480047FEE7FEE7FEE7FEE7FEE7FEE7A9
:10C4A000FEE7FEE7FEE7FEE779C7010001C40100F1
:10C4B00040EA01039B0703D009E008C9121F08C026
:10C4C000042AFAD203E011F8013B00F8013B521EA6
:10C4D000F9D27047D2B201E000F8012B491EFBD21D
:10C4E00070470022F6E710B513460A46044619467F
:10C4F000FFF7F0FF204610BD421C10F8011B002979
:10C50000FBD1801A704730B504460020034600E096
:10C510005B1C934203D2E05CCD5C401BF8D030BD85
:10C52000064C074D06E0E06840F0010394E8070080
:10C5300098471034AC42F6D3FFF766FFF4040200CC
:10C540001405020030B58C1810F8012B12F00F03FF
:10C5500001D110F8013B120906D110F8012B03E0BC
:10C5600010F8015B01F8015B5B1EF9D101E001F8F5
:10C57000013B521EFBD1A142E6D3002030BD00009A
:10C580002DE9FC5F0025DFF83491A8464FF4807652
:10C5900001242F46304602F01BFE38B1D9F80403BF
:10C5A000204203D0304602F009FE2543361D6400C8
:10C5B0007F1CB6B2082FEDD34FF4BE74204602F0B4
:10C5C00007FE38B1204602F0F9FD3D4845F0004530
:10C5D000D0F800803B4E15F0FF0F14D00127002447
:10C5E0002F420CD009EB8401D1F81005D1F81015B9
:10C5F000C0F3042056F82420C1F3014190477F0086
:10C60000641C082CECD3002D56DA00200190401E4B
:10C610004CE0701910F8501F90F9000021F0C00490
:10C62000401C38D0012000FA04FA1AEA090F32D06F
:10C630004FEA911B204601F0C7FB56F820000090FE
:10C6400010B9BBF1030F26D15146BBF1030F02D144
:10C65000019808430190A00000F1A040D0F8000725
:10C660001AEA080FC0F3014002D0022802D012E0FB
:10C67000032810D1BBF1030F07D102281AD00221E1
:10C68000204602F08DFD7F1CFFB2009818B1009A81
:10C690005946204690476D1C042DBAD3002F0BD06D
:10C6A00007480068404507D080460198002781462A
:10C6B0003D46AEE70321E3E7BDE8FC9F0060004094
:10C6C00010050050DC27002000F01F0201219140DE
:10C6D0004009800000F1E020C0F88012704700F0AF
:10C6E0001F02012191404009800000F1E020C0F8C4
:10C6F0000011704700F01F020121914040098000A5
:10C7000000F1E020C0F8001270474907090E002828
:10C7100006DA00F00F0000F1E02080F8141D7047E9
:10C7200000F1E02080F80014704700000748002165
:10C73000C0F84011C0F84411C0F84811C0F84C11BD
:10C74000C0F80011C0F8041103F04ABC0010014009
:10C7500003F0E2BB074810B5406830B180470028BD
:10C7600007D0BDE8104000F085BABDE8104002F0E7
:10C7700089BA10BDAC21002070B58D480023021D80
:10C780000178101D0124062907D115782D0704D141
:10C790000578C5F30315032D02D0062904D00FE058
:10C7A000854E844D75670EE015782D0708D1057804
:10C7B000C5F30315032D06D0042D04D0052D02D09A
:10C7C000062909D010E04FF08055D5F844527B4E31
:10C7D000C5F34235356002E015782D0704D10578A0
:10C7E000C5F30315032D02D0062906D011E0744DC0
:10C7F0002E6826F080762E600EE015782D0708D181
:10C800000578C5F30315032D06D0042D04D0052D9E
:10C8100002D006290AD011E04FF08045C5F80C314E
:10C82000C5F81031654D2D1F2B6002E015782D07DE
:10C8300004D10578C5F30315032D02D0062905D0D0
:10C840000CE05E4A0321643211600AE015782D077E
:10C8500004D10578C5F30315032D02D006290DD0A8
:10C860006AE0584A05211160564978310C605549F3
:10C8700008310B603F21121D116002E01178090799
:10C880005AD10078C0F30310052855D14E480068EE
:10C890004E4908604C48001D0068091D08604A4860
:10C8A00008300068091D086047480C300068091D01
:10C8B0000860454810300068091D0860424814307F
:10C8C0000068091D08604048183000683F49203161
:10C8D00008603D481C300068091D08603A48203057
:10C8E0000068091D0860384824300068091D086088
:10C8F000354828300068091D086033482C3000682E
:10C90000091D086030483030006830494031086007
:10C910002D4834300068091D08602B483830006805
:10C92000091D086028483C300068091D0860264839
:10C9300040300068091D086021487438016841F4DE
:10C9400070010160BFF34F8FBFF36F8F4FF0102165
:10C95000D1F80002002803DBD1F80402002822DA13
:10C960001B4A14601B480468002CFCD01524C1F835
:10C9700000420568002DFCD0C1F80442016800297E
:10C98000FCD0136001680029FCD0BFF34F8F0C4826
:10C99000F0380168104A01F4E06111430160BFF30F
:10C9A0004F8F00BFFDE70E490C48086070BD0000C6
:10C9B000E00F00F00DF0ADBA00C007403C050040AC
:10C9C000FCED00E0105600400404001020C50040BB
:10C9D00004E5014000E401400400FA050090D003A2
:10C9E000C02100200348007F08B103F0E3BB03F03F
:10C9F0005DBB00003428002002E008C8121F08C1F7
:10CA0000002AFAD170477047002001E001C1121FCF
:10CA1000002AFBD170472DE9FC5F002516880746E8
:10CA20001580406B14468946A8464FF00C0A112326
:10CA30004FF0020B98B101784846032E48D380F896
:10CA400000B02288521C92B2228083542288521C49
:10CA500092B2228009F802102088401C20803A6B94
:10CA6000DAB12088494600F11205B54230D80B549E
:10CA700020881023401C80B220800B542088401C4A
:10CA800020800F202388155C401ECD54238840B29F
:10CA90005B1C23800028F5DA454697F82E0030B15C
:10CAA00033462246494602F05BF9050011D197F85A
:10CAB0002D0030B132462146484600F0ADFD05005C
:10CAC00007D1B87820B32088C846001DB04202D9EB
:10CAD0005046BDE8FC9F684679DF0028F9D12188DF
:10CAE000032008F8010020881921401C80B2208012
:10CAF00008F800102088401C80B2208000EB08015C
:10CB0000BDF8000003F0C2FB0146208808442080E5
:10CB1000F878B8B1228897F90310D31C4846B3427D
:10CB2000D6D800F802B022880123521C92B222808B
:10CB300083542288521C92B2228009F80210208865
:10CB4000401C20807868B8B1218890F90020CB1C67
:10CB50004846B342BCD800F801B021880A23491CDA
:10CB600089B2218043542188491C89B2218009F867
:10CB700001202088401C2080388950B1CDE9004632
:10CB80004B460622022107F1080003F0F2FB0500E4
:10CB90009FD1388A50B1CDE900464B460722032188
:10CBA00007F1100003F0E5FB050092D1388B50B17E
:10CBB000CDE900464B461522142107F1180003F079
:10CBC000D8FB050085D1386A30B133462246494644
:10CBD00001F0AAFA0500DBD1786A30B1334622466B
:10CBE000494602F057FA0500D2D197F82C0038B127
:10CBF000334622464946384602F014FF0500C7D1A5
:10CC0000387838B1334622464946384602F074FA3D
:10CC10000500BDD128465CE710B5012202210020A5
:10CC200000F074FF08B1072810D10722022101206B
:10CC300000F06CFF08B1072808D100210A2208463D
:10CC400000F064FF08B1072800D1002010BD0000EB
:10CC5000BFF34F8F05480168054A01F4E0611143B5
:10CC60000160BFF34F8F00BFFDE700000CED00E057
:10CC70000400FA050EB500210091CDE901106A46C5
:10CC800044F20100FFF7E4FF0EBD0000014B1B68FA
:10CC900018470000B827002038B50C46074BA2689B
:10CCA000097802EB420253F82250054A126A0092B8
:10CCB000024604F108002369A84738BD2029002056
:10CCC00068210020074910B50A7802EB820201EBC7
:10CCD0008201091DFFF7E0FFBDE81040042002F0CB
:10CCE0008BBF000054280020074B9B6823B12AB15A
:10CCF00020B10068037C1BB10820704707207047F3
:10CD000041744261002070478C2100202DE9F047DA
:10CD10008046994614460F4690074FF0000634D1DE
:10CD20001C4D8CB302F078FD0320C5F814902870D8
:10CD300004F11800002107EB4703AC6004EBC102CB
:10CD4000491C167056709770506000EBC3000329A1
:10CD5000F4DBEE606E70AE701420FFF7B5FC0621B8
:10CD60001420FFF7D2FC1420FFF7B9FC0A49C1F8E0
:10CD7000008006211120FFF7C8FC0748001F00684B
:10CD800028610020BDE8F08701E00720FAE7AE60E7
:10CD9000FBE700008C210020081501402DE9F84335
:10CDA000DFF870900D461746D9F80810044651B3C5
:10CDB0004CB3052D02D20720BDE8F883606910B39B
:10CDC000607C012821D0002603F0A0FAD9F80810D1
:10CDD000804601EBC800694603F0B7FAB8B10121FB
:10CDE00000F8041B0C4910C0096880E8E200D9F87B
:10CDF000081001EBC8009DF8001041701420FFF7E7
:10CE000079FC0020D8E70820D6E72E46DCE704208E
:10CE1000D2E700008C21002004150140F8B5124E25
:10CE20000446B168E1B1DCB16069C8B1002727747C
:10CE300003F06CFA0546B068694600EBC50003F0E4
:10CE400084FA78B1022101704460B0689DF8001046
:10CE500000EBC50041701420FFF74CFC3846F8BDCC
:10CE60000820F8BD0420F8BD8C2100202DE9F043F6
:10CE70000546007D93B00E460024A0B107949DF8AE
:10CE80001C0020F00F00401C20F0F00010308DF846
:10CE90001C00707B8DF81D009DF81E0020F0060020
:10CEA000801C8DF81E001C216846FFF71AFB9DF8B8
:10CEB000000040F002008DF80000297D11B140F023
:10CEC000100001E020F010008DF8000001940394A0
:10CED0000494287D00B107A8CDE9050401278DF849
:10CEE000427042F61920ADF840000D94B07B8DF8E9
:10CEF0003400F07B8DF835009DF83600142120F0C9
:10CF00000600801C20F019008DF83600307B8DF86B
:10CF1000440008A8FFF7E5FA0DF140080DF13409C7
:10CF2000ADF8287011A8CDE90889ADF82A40ADF810
:10CF30002C700C90A888AB1D08AA6946A2DF0028B7
:10CF400038D1B06898B38DF8427042F60810ADF849
:10CF500040000D94307C8DF834009DF8350020F0B1
:10CF6000FF008DF835009DF8360020F00600801C8B
:10CF700020F019008DF836000EA8B16800F0CAFC48
:10CF80000646142108A8FFF7ACFAADF828600EA8F1
:10CF9000CDE90889ADF82A40ADF82C600C90E888FE
:10CFA00005F10E0208A9A3DF002803D101E0FFE785
:10CFB000EC81002013B0BDE8F083000010B50D49EE
:10CFC0000D4802F022FDC1B20A48343800F02AFAB6
:10CFD00000280DD008280BD0A0F54051043907D007
:10CFE00043F20141884203D0BDE81040FFF742BE42
:10CFF00010BD0000C824002084200020F0B50C469D
:10D0000093B01F210726ADF80010ADF804100027DB
:10D0100050B1C17849070DD56A4602A9FFF7FBFC5C
:10D02000002808D102AD02E00025ADF800706CB117
:10D03000E07810B1304613B0F0BD01AA0AA920462D
:10D04000FFF7E9FC0028F6D10AAA02E00022ADF8B9
:10D050000470BDF80400C3B2BDF80000C1B2284698
:10D0600072DFE8E770B50D4604991646040040D01B
:10D07000F6B3414800224271C0E90331242231460F
:10D080003E48FFF715FA00F0D5F83C493431A1F1DC
:10D09000100001602031816038215C38FFF721FAEF
:10D0A0003648217838380170A1788170E178C170F4
:10D0B00061784170D4E90412C0E90412D4E9021283
:10D0C000C0E90212D4E90612C0E90612616AD1B1C0
:10D0D00000F1AC0100F1B80241628A60636A1B880A
:10D0E0000B80616A436A898899800021436A07E05E
:10D0F000FFE70E2070BD666AB668765C5654491C20
:10D100009E888E42F7D8A16AD9B11C4AAC32A2F1EE
:10D110000C018A608162A36A9B888B80A16A836A02
:10D12000098819800021836A04E0A66AB668765CE3
:10D130005654491C9E888E42F7D894F82C1080F8DB
:10D140002C10216A49B10C4914310162226A5288BB
:10D150004A80216A026A09881180616821B1064902
:10D16000891D4160616841602946BDE870400348FF
:10D170003838FFF743BF0000D0200020AC25002046
:10D1800010B502881D4C102A18D00021112A1BD07E
:10D190001B2A18D1007A002815D16079012820D0E7
:10D1A000022824D0032824D004280CD12171E2685D
:10D1B0000846002A07D0BDE810401047817D0129AC
:10D1C00001D18088208110BD6170808821898842CA
:10D1D000F9D1012006E021690029F4D0BDE8104012
:10D1E0000847022000F02EF80028F4D110BD0320DB
:10D1F000F8E7032020710420F4E70000D02000208D
:10D2000010B5022801D0032810D1094C207800283D
:10D210000CD000202070607900F014F8002805D0B0
:10D220002169002902D0BDE81040084710BD000068
:10D23000D0200020024800218161818381777047DE
:10D24000D02000202DE9F04F744C87B0002660718B
:10D2500006A8069602F040F80127082801D030B948
:10D2600003E006A801F0B4FB18B9069808B12770CE
:10D27000C0E0FFF7DFFF6A4DDFF8A0814FF0020A40
:10D28000687808F118084FF0030B10B16079012895
:10D2900006D0A87858B16079012801D002281FD1A2
:10D2A000E16819B1E7700820884700E0E67060790E
:10D2B000012806D1687840B108F1010001F0CAFFE9
:10D2C00018B16079022802D00AE084F805A0A87895
:10D2D00020B108F1010001F0BDFF08B984F805B0E4
:10D2E000287B4FF0040920B96079032801D184F824
:10D2F0000590287E20B96079042801D166712671D5
:10D30000E16841B16079032801D0042803D128786D
:10D3100008B16078C0B1A67018216846FFF7E1F83F
:10D320008DF8006001968DF80860039660790128F9
:10D330000ED0022816D03A4E2436A6F15C070328F8
:10D340001DD004284CD13AE0A77007208847E3E7B6
:10D35000ADF81260CDF804808DF80070ADF8106063
:10D3600027713FE0CDF804808DF800702889ADF872
:10D370001200A888ADF8100084F804A032E0A88A52
:10D38000ADF81200288AADF810002548243003F0CB
:10D3900057F818B1287808B1607810B184F804B053
:10D3A0001EE01F488DF808A0039687F8039000211F
:10D3B0003838FFF723FE00281DD105202BE0A88B6D
:10D3C000ADF81000288CADF812001548243003F099
:10D3D00037F818B1287808B1607878B184F80490EB
:10D3E000607918B1684673DF002804D1E16809B19B
:10D3F00020798847002007B0BDE8F08F08488DF8F5
:10D4000008A0039687F8039000213838FFF7F6FD4F
:10D410000028F0D106202071E2E70000D020002093
:10D42000AC25002073B586B0040034D0217C9DF873
:10D430001C20002091422CD0002501260095ADF83B
:10D44000006007A8ADF802500190E188608A6A4642
:10D45000A4DF00281DD19DF81C002074608AA0F56F
:10D460007F41FF3919D0207DB8B10295039504950D
:10D470000595E088ADF80800BDF80200ADF80C0095
:10D4800001988DF80A60CDF810D00590608A02A945
:10D49000A6DF08B070BD0E20FBE70820F9E738B51D
:10D4A0000D4604001BD0D5B1286820604FF6FF70F0
:10D4B000608228792075FF20207401208DF80200F9
:10D4C00041F60F00ADF80000221D69460120A0DFE3
:10D4D000002803D129462046FFF7C8FC38BD0E209E
:10D4E00038BD08B5002821D000291FD00A88102A8D
:10D4F00017D0112A17D0502A18D1027D002A15D032
:10D5000031F8062F43899A4210D14A89022A0DD157
:10D510000268002A0AD0097B11F0010F07D0002110
:10D5200006E0898801E04FF6FF71418208BD0121C4
:10D530008DF800106946904708BD000070B505469B
:10D5400001461C220F48FEF7B3FF0F4C0026267041
:10D55000286830B1016861604068A060201D7ADFF2
:10D5600002E00948001D7BDF00280AD14FF6FF705A
:10D5700060806670BDE87040044A00210448FFF7EF
:10D58000B3BB70BD98260020F0200020AD02020041
:10D590009804020070B51E4C068800251B49E289DC
:10D5A000102E15D01B4B112E1CD0122E29D0502E10
:10D5B00017D130F8061F914213D14189022910D1A9
:10D5C000007B10F0010F11D0BDE8704000F0F2BDFB
:10D5D00083884B808369CB60C06908614D70002AE5
:10D5E000F2D070BD4FF6FF7048804D701868FFF79D
:10D5F00015FC0028F5D0A1690029F2D0BDE87040E3
:10D6000008478268CA60C0680861DDE7F020002032
:10D6100098260020980402007CB5054608880C4630
:10D620000930904201D90C207CBD684671DF00288A
:10D63000FAD121880820685420881B21401C80B220
:10D64000208029542088401C80B220802844DDF8A6
:10D6500001100160BDF8051081802088801D80B216
:10D6600020809DF8001001B1012129542088401C20
:10D67000208000207CBD00007FB5044601208DF88D
:10D68000060041F60A00ADF80400454A01A9012050
:10D69000A0DF00287ED1228804F13C0552B1404829
:10D6A0002B46801C009042F62920616800F094FB14
:10D6B000002873D1228952B139482B460A30009094
:10D6C00042F62420E16800F087FB002866D1228A18
:10D6D00052B133482B461230009042F62520616942
:10D6E00000F07AFB002859D1228B52B12C482B46EE
:10D6F0001A30009042F62720E16900F06DFB002807
:10D700004CD1228C52B126482B462230009042F652
:10D710002620616A00F060FB00283FD1228D52B1C3
:10D720001F482B462A30009042F62820E16A00F07C
:10D7300053FB002832D1216B71B102A802F0C1FB6A
:10D7400017482B4632300090082202A942F62320C7
:10D7500000F042FB002821D1606B58B110492B46E4
:10D760003A3100910279016842F62A2000F034FB38
:10D77000002813D1A16B81B102A801F093FD0848E4
:10D780002B4642300090072202A942F6502000F0BA
:10D7900023FB00E002E0002800D1002004B070BDAF
:10D7A0000421002070B5044600F064FE21461248B2
:10D7B00000F07EF8104821461838FFF792FE204608
:10D7C000FFF7E8FE204600F00BF920880B4D1028EB
:10D7D00002D011280BD107E0072000F0B9F908B1F9
:10D7E000FFF748FAA08801E04FF6FF702880204636
:10D7F000BDE87040FFF7C4BCAC24002080200020AE
:10D8000038B50D4604001FD0F5B1286820604FF6EA
:10D81000FF70E0826889208301208DF8020041F6C4
:10D820001400ADF80000221D69460120A0DF002889
:10D8300009D12946204601F05FFF002803D129467F
:10D84000204601F0D1FE38BD0E2038BD30B58BB07A
:10D85000040029D041B3E08AA0F57F42FF3A25D0E9
:10D8600005AA204601F0A9FF0546ADF800000020FA
:10D870000190029003900490E188ADF8041001211A
:10D88000ADF808008DF8061005A8CDF80CD004906E
:10D89000E08A01A9A6DF002804D1BDF80010A94242
:10D8A00000D00C200BB030BD0E20FBE70820F9E7BC
:10D8B00008B500281ED000291CD00A88102A14D0D0
:10D8C000112A14D0502A15D131F8062F43899A42D3
:10D8D00010D14A89022A0DD10268002A0AD0097B98
:10D8E00011F0010F07D0002106E0898801E04FF612
:10D8F000FF71C18208BD01218DF800106946904773
:10D9000008BD70B504460D460846FEF7F5FD2080BB
:10D91000656070BD0A7802704978417002207047D6
:10D9200000B5184887B00023806805904822164942
:10D9300005A802F0A9F908B1FFF79CF96A46012190
:10D94000002002F08BF908B1FFF794F90F4801F0BD
:10D95000A9FF08B1FFF78EF9684602F075F908B122
:10D96000FFF788F90A4802F065F908B1FFF782F974
:10D97000084802F0A3F9002801D0FFF77BF907B0AF
:10D9800000BD0000500402004C240020E81F0020CD
:10D99000A5D70100B1FE01001CB5044681786A4696
:10D9A0000C4801F0ABFC002813D160780A49C0EBA9
:10D9B000C00001EB80001C231A46694601F022FDDD
:10D9C000054806494030807A51F8202021466846B3
:10D9D00090471CBD6021002078270020AC04020085
:10D9E00010B51A4C0188606810290ED011292BD16E
:10D9F000401E606028D1FFF70FF9002824D021686D
:10DA0000002921D0BDE810400847D0B900210122EB
:10DA1000084600F07BF808B107280FD10722022141
:10DA2000012000F073F808B1072807D10422022171
:10DA3000002000F06BF820B1072802D0216801B166
:10DA400088476068401C606010BD0000C82000204E
:10DA500010B5032000F09AF908B1062800D1002083
:10DA600010BD00002DE9F04707460024244802E0DD
:10DA7000641C042C41D250F82420BA42F8D1042C62
:10DA80003BD21F48DFF87C901F4E0C38A9F11408D8
:10DA900041B301290FD002292FD104EB44003044B7
:10DAA0004578002D29D0D8F81010002925D0284617
:10DAB000BDE8F047084704EB4401755C0E447178FB
:10DAC00061B1D8F804100F4A01EB81014900133A03
:10DAD0008068FFF763F908B988F80170B17809F830
:10DAE0000410DEE78068FFF799F904EB4401314444
:10DAF00019F804008D78A842D3D0BDE8F087000063
:10DB000068040200C42000204825002070B50023CE
:10DB1000042810D20D4D00EB4004012A02D1012946
:10DB20000CD00022094E00EB4000304461B10129C5
:10DB300006D0022906D00723184670BD0D30C2B2A8
:10DB40002A55F9E74270F7E78270F5E7482500208B
:10DB5000044A01460020127AD20702D0084600F09B
:10DB600003B87047B02000202DE9F84F854EDFF84C
:10DB700010A24FF4E01CF16807462CEA010C00915A
:10DB8000002071680AF10404251D7F4B4FF4003218
:10DB90004FF4802B01EB810E8146182F16D2DFE85F
:10DBA00007F00C17173A4E607083868F868FEAA0B5
:10DBB000A0A0A0A0CAD1D8E1EAEA009A4FF4F011DF
:10DBC00091432160C5F8009086F80090BDE8F88F79
:10DBD000C4F800C04846C5F80090DAF800C08CF4DC
:10DBE000F01C5FEA8C3C09D522602860022F02D12C
:10DBF0004FF4E16008E04FF47A6005E02A602060AD
:10DC0000022F3CD04FF4C8706422B0FBF2F04143C5
:10DC1000377000225EE0C4F800C04846C5F80090A6
:10DC2000DAF800C08CF4F01C5FEA8C3C04D522606A
:10DC300028604FF44870E7E72A6020601FE0C4F8CE
:10DC400000C04846C5F80090DAF800C08CF4F01C1B
:10DC50005FEA8C3C02D522602860CCE72A60206015
:10DC6000D0E7C4F800C04846C5F80090DAF800C014
:10DC70008CF4F01C5FEA8C3CDED522602860C82062
:10DC8000C2E7C4F800C04846C5F80090DAF800C002
:10DC90008CF4F01C5FEA8C3C02D52260286001E025
:10DCA0002A602060377014E0C4F800C04DE0DAF854
:10DCB00000002BEA0002226000F48020286008E0C7
:10DCC000DAF800002BEA0001216000F480202860CF
:10DCD000714600221868BDE8F84FFFF75FB8216071
:10DCE0002EE098465868FFF799F8D7F1110100D057
:10DCF00040B1F16801F4F0112160C5F80090C6F858
:10DD00000C9063E74FF40022F26001290CD9C8207F
:10DD100011FB00F16420B1FBF0F170680022414377
:10DD2000D8F80400FFF73AF8F16801F4F01129601F
:10DD3000C4F800904AE74FF4F0112160C5F8009054
:10DD4000377043E74FF4E01121604946C5F8009071
:10DD500006E04FF4D01121604946C5F800905A46BC
:10DD60002A60BCE74FF4C01121604946C5F8009015
:10DD70004FF4C022F4E74FF4F01129604946AEE7B2
:10DD800004050050B02000205C04020070B50021A2
:10DD90000C4D012455F82120920002F1A042D2F846
:10DDA000006704FA01F3034000D0032326F4403651
:10DDB00046EA0343C2F80037491C0429EAD300208D
:10DDC00070BD0000680402000249084490F9300068
:10DDD00070470000DC2700202DE9F0438FB01E467D
:10DDE000DDF8589015460F00804602D10020FEF75E
:10DDF00041FF15B90020FEF73DFF1C216846FEF7E4
:10DE000070FB00249DF80000039440F002008DF8A0
:10DE10000000012001948DF83600049405940694C6
:10DE2000ADF834800C9430788DF8300070788DF82F
:10DE300031009DF83200142120F00600801C20F0F3
:10DE400019008DF8320007A8FEF74BFB0DA80790CC
:10DE50000CA808900748ADF82450ADF82640ADF85E
:10DE600028500B974B4607AA69460088A2DF0FB0DF
:10DE7000BDE8F083042100202DE9F0413B48017802
:10DE800001EB810100EB8104D4E9030600EB4001C2
:10DE90003648241DCC3000EB8100B0F8088045895D
:10DEA000476801F0AAFAB6FBF0F100FB116088B3F5
:10DEB0005FF0000008FB05776188A288DFF8B0807A
:10DEC00011448D190022C8F8102040B101F095FAD4
:10DED0006188884221D0BD4201D1A088E8B1A06804
:10DEE00002281AD001F089FAA18844463144B1FBD6
:10DEF000F0F200FB12108008C8F80C0001F07DFA67
:10DF0000B5FBF0F100FB115078B10020BD4228D0E4
:10DF100068B126E0FFE70120CCE701F06EFAB6FB1E
:10DF2000F0F10320C8F814101CE00120EEE7ADB2B8
:10DF3000BEB201F062FAB6FBF0F701F05EFAB5FB93
:10DF4000F0F0874201D1701B09E001F056FA064655
:10DF500001F053FAB5FBF0F100FB1150301A8008C4
:10DF600020610220BDE8F04101F046BE54280020A7
:10DF7000682100200648017801EB810100EB810057
:10DF80000079042801D000F059B8012001F034BE16
:10DF9000542800200A480B4A017801EB810100EB6C
:10DFA0008100C18811620079012805D0032801D0C1
:10DFB000042804D1FFF760BF012001F01DBE7047A7
:10DFC000542800206821002000EB80020548002131
:10DFD00000EB820001220171C180C0E9032141618F
:10DFE00001817047542800202DE9F041114D069E13
:10DFF0006C780A2C1BD02F783C440A2C00D30A3CA6
:10E0000004EB840405EB840420716261D1E9000112
:10E01000C4E90301E38026816878401C68700648E3
:10E02000007808B9FFF7B6FF0020BDE8F0810420B2
:10E03000FBE70000542800206821002010B50E4C9A
:10E04000207800EB800004EB80010020091DFEF722
:10E0500023FE2078FFF7B8FF6078401E60702078BC
:10E06000401CC0B220700A2801D100202070BDE8F9
:10E070001040002001F0C0BD542800202DE9F05FC1
:10E080002648C168F1B3DFF898B00E688146DBF826
:10E0900000400769C078E11B21F07F45ED1CB0B955
:10E0A000DFF880804FF48030C8F84403C8F80403D8
:10E0B0001120FEF709FB1120FEF711FB4FF0010ABA
:10E0C000C8F800A02F20FEF7A5F989F803A0B542F3
:10E0D00000D23546124BE8193C3320F07F401860DF
:10E0E000DBF800105A46091B21F07F41001B20F08D
:10E0F0007F40C91C81420FD9106818602F20FEF79D
:10E1000089F900E004E0BDE8F05F1120FEF7F2BA03
:10E11000BDE8F05F01F080BBBDE8F09F8C210020DE
:10E1200004150140001001402DE9F0411788064612
:10E13000B81D14460D46984202D90C20BDE8F08166
:10E140003188072206290AD34FF4486C4FF6FF7333
:10E15000614501D9994202D17088062801D2104642
:10E16000ECE7604501D99842F9D1994203D0984231
:10E1700001D08142F3D80520E85520881221401CA7
:10E1800080B2208029542088401C80B22080411910
:10E19000308802F07BF82188084480B22080411941
:10E1A000708802F073F82188084420800020C5E7B9
:10E1B000FEF760BDF8B5134800F09CFD114D002638
:10E1C000114C0C3D30B16169B9B101208DF80000EE
:10E1D000684611E0287820B1616971B18DF800605E
:10E1E000F6E7687858B1A168084800220068FEF791
:10E1F000D5FD10B1A16901B188472E70F8BD6168E5
:10E20000F2E70000FC20002098260020980402007D
:10E2100070B5094B044608209E7A00250E4208D0AE
:10E22000A4F57F40FF3802D01889A04202D1002017
:10E23000156070BD052070BDAC27002000EB4002CA
:10E240000748012100EB820081724FF6FF710181C6
:10E25000FF21C1720021016081808171704700003F
:10E26000AC27002010B5134C207900071ED460693C
:10E27000401C6061E06808B104200AE000F048FD3D
:10E2800008B1022005E0206960B16068C10704D0D0
:10E290000320BDE8104001F001BE40F001006060C5
:10E2A0000020F6E7BDE81040FFF764BEBDE810406F
:10E2B00001F0EABD68210020F0B54FF08053002442
:10E2C0001B69164F534302223A60154E3268002AEA
:10E2D000FCD0124D2D1D2B603268002AFCD04FF06F
:10E2E000000CC7F800C03268002AFCD04FF0010EC5
:10E2F0008C4212D210F82420C7F800E03568002DB7
:10E30000FCD01A603268002AFCD0C7F800C032681E
:10E31000002AFCD01B1D641CEAE7F0BD04E50140A7
:10E3200000E4014006494868020707D4820702D585
:10E3300040F001004860022001F0B0BD01F0A4BD32
:10E34000682100202DE9FC410E46044681786A468A
:10E35000254800F0D3FF002829D16078234F00EB37
:10E36000400007EB8000807A400622D4022E20D0A5
:10E37000012E20D01E4D1D49A078F839C0EBC000F9
:10E3800001EB800100231C226846A847A8B1022E99
:10E390000DD02078154900EB40000C3101EB8000D6
:10E3A0001449807A51F82020214668469047BDE8FC
:10E3B000FC81114DDFE7114DDDE7022EF7D06078CB
:10E3C00000EB400007EB8000817A21F04001817270
:10E3D000064960783439C0EBC00001EB80011C2392
:10E3E0001A466846A847D4E760210020AC270020E1
:10E3F00011FE01009C04020069F50100A1F4010076
:10E400002DE9F04705250F4F904689460646002422
:10E41000C4EBC40007EB800036B107223146103050
:10E42000FEF771F818B106E0018B414503D10025D4
:10E43000C9F8004002E0641C072CE9D32846BDE877
:10E44000F0870000B42600207CB5054681B26A46FC
:10E45000074800F053FF040008D15421684600F03B
:10E4600073FF040002D1284600F0FEFE20467CBD6A
:10E47000602100202DE9F04F054693B0F948FF24B4
:10E48000089400784FF0000A002853D0F64E306808
:10E4900000284FD001A800F016FA08B1FEF7EAFBF9
:10E4A000281D05902C20ADF818000027FF208DF8BE
:10E4B00006008DF804700097EB4C28880C3CBB4696
:10E4C00010280FD0A8886A460221FFF7A1FE48B99C
:10E4D000009800EB400104EB8101C97A8DF8061029
:10E4E0008DF80500DFF880932888A9F140091322F0
:10E4F000A9F1C408192874D010DC10281DD01128E7
:10E500005DD013286ED0142814D1009800EB400081
:10E5100004EB8000C07AFF287CD099E0D3491A2808
:10E5200076D01E2875D0522804D1B07A51F8201028
:10E5300001A8884713B0BDE8F08F4FF6FF766A4612
:10E5400001213046FFF764FE0028F3D10099022232
:10E5500001EB410004EB8000827211228DF8102043
:10E560008DF80510A9880181A9680160A9898180B9
:10E57000A97B8171E87DC10708D0BA49083101EB58
:10E5800050000078FF2809D0089007E0324608A91B
:10E5900005F10800FFF734FF00280FD10099089813
:10E5A00001EB410104EB8101C8728A7A42F0080252
:10E5B0008A728DF8060001A8FFF7EEF96DE1009868
:10E5C00000EB400004EB8001887A20F002008872A2
:10E5D000010708D500060FD5002101A8FFF7B2FEFC
:10E5E0000AE0BDE043E09DF80600FF2804D000F0FB
:10E5F0003BFEFF208DF806000099102001EB410141
:10E6000004EB8101887212208DF8100045E101E0D1
:10E61000FDE040E12A8A08A90020FFF7F1FE78B961
:10E620000098089900EB400004EB8000C172827AE8
:10E6300042F0080282728DF8061001A8FFF7ACF9CB
:10E64000009800EB400004EB8000C07AFF2804D063
:10E650000098C0EBC00109EB810A00980023C0EBD1
:10E66000C00108EB8102A888514686DF62E7009866
:10E670008DF8102000EB400004EB8001887A40F018
:10E6800004008872CA7AFF2A0BD040F040008872DA
:10E69000162000238DF81000A8881A4685217FDFF8
:10E6A00033E00DF1200C48F2430300204FEA08024A
:10E6B000C0EBC00802EB880898F81A80B8F1FF0F89
:10E6C00026D0401C0728F3D34FEA03070099CDF862
:10E6D00034B001EB410304EB8303DB7ACDF840B0A7
:10E6E000C3EBC30302EB8302CDE90E2BC1EBC102E6
:10E6F00009EB8201CDE9091BCDF82CB0CDF830B083
:10E70000321DA88809AB00217FDF0028AED1C4E00C
:10E710000B78022B12D0C0EBC00302EB83034FF047
:10E72000FD0883F81A80D1F80080C3F81080B1F892
:10E730000480A3F814808979997505E0C0EBC001C5
:10E7400002EB8101FE238B768CF80000009908987B
:10E7500001EB410104EB81018DF80600C872B5E7B9
:10E76000707A20F001007072009E06EB460304EB05
:10E770008300817A21F00402827214218DF8101036
:10E78000297A31B1510603D4C07AFFF75DFE2F7AA2
:10E7900083E0697A490739D59DF80610FF297CD0B6
:10E7A00042F0080282726A7B920707D5C1EBC1056D
:10E7B00008EB8502957E25F001059576C27AFF2A41
:10E7C0006BD014F82320022A0ED0C1EBC10208EB53
:10E7D000820102680A6182888A8280798875887ECF
:10E7E00020F0020088760DE0C6EBC60209EB82003D
:10E7F000C1EBC101428A08EB81000283817E21F0D6
:10E8000001018176012101A8FFF79CFD45E0287AEE
:10E810000122B2EB101F2BD100F00F00012827D1ED
:10E82000009800EB400004EB8002927A12071FD59B
:10E830000D49243901EBC0000E210830FDF751FECF
:10E8400016208DF81000009800EB400004EB8000CB
:10E85000817A41F060018172707A40F0020070723A
:10E8600017E0000050210020B8270020BC0402005F
:10E87000009800EB400004EB8000827A42F08002B6
:10E88000827215208DF81000B07A51F8201001A87E
:10E890008847002701E08DF810203A4604A901A816
:10E8A000FEF7F4F99DF8100012287FF4DFAE00980F
:10E8B00000EB400104EB8101897A01293FF4D6AED7
:10E8C000FFF7BCFC36E630B1FF210170417081706A
:10E8D000C1700020704748F20E0070470E4910B515
:10E8E0004A788C780023A24212D0521CD2B24A70CD
:10E8F000022A00D14B70084A4B78183252F8232074
:10E9000002600869104420F07F400861012010BDBA
:10E910000360002010BD00008C210020002808D0DA
:10E92000112801D0FEF7CEB90248416841F0080134
:10E93000416070476821002010B51F4C20462178A7
:10E940004068012910D002292DD0032932D10007B7
:10E9500025D46069401C606100F0DAF9D8B12078F4
:10E96000BDE8104001F048B9000718D41348A28B45
:10E97000017801EB810100EB8100C188891A09044B
:10E98000090CC18003D0BDE8104001F043BABDE8D6
:10E990001040FFF753BBBDE81040FFF7EBBABDE8EE
:10E9A000104000F06DBB0648617850F82100BDE8CA
:10E9B0001040004710BD00006821002054280020AE
:10E9C000E004020028DFFFF7A9BF29DFFFF7A6BF99
:10E9D00020B10349496D0160002070470320704752
:10E9E0002C2900200EB516A19DF8080020F00F007C
:10E9F000401C20F0F00010308DF808000C2202A816
:10EA00007CDF08B1FEF736F94FF4886078DF08B193
:10EA1000FEF730F900204FF4C87100900190ADF876
:10EA20000400ADF800104A00ADF80220ADF8061061
:10EA300068467ADF002801D0FEF71CF90EBD000001
:10EA400056535445414D5F42494E474F0000000028
:10EA50000020704700207047002070472DE9F047E4
:10EA600005464078DFF89C9000EB400209EBC200BD
:10EA7000002409F1180A4368274626460AEB82015A
:10EA800063B191F80AC05FEA0C6807D55FEA4C6C85
:10EA900004D459F8326000F108049FB20889D046C6
:10EAA00033463A462146A9DF48F241090B281CD0DB
:10EAB00000B14846012E16D168784FF6FF7200EB80
:10EAC000400008EB80000C210089A7DF00280AD055
:10EAD000A0F54051023913D0082811D0891E0FD05B
:10EAE00011280DD00020BDE8F0876878012300EBE5
:10EAF000400008EB80003A4600892146A9DFDBE7A9
:10EB00004846F0E79427002070B50C46014660782F
:10EB10000A4D00EB400005EBC0003823182200F03E
:10EB200071FC002808D1617801EB410105EBC101BE
:10EB30004A68521C00D14A6070BD00009427002032
:10EB40002DE9F04186B0804603270E20ADF8100075
:10EB50004878284E00EB400006EB80000D46008907
:10EB60003B4604AA6946AADF08BB6878A6F11804E8
:10EB700000EB400004EBC000BDF8102069460830EF
:10EB8000FDF7C1FC0028687800EB400005D004EBDD
:10EB9000C001496861B1184E0BE006EB8001897A2B
:10EBA000890722D404EBC0001821FDF79AFC1CE071
:10EBB000124E44F830706878BDF8102000EB400029
:10EBC00004EBC00069464260687800EB400004EB4B
:10EBD000C0000830FDF76CFC6878382300EB40007B
:10EBE00004EBC00118224046B04706B00020BDE843
:10EBF000F0810000AC27002069F50100A1F40100BC
:10EC0000FFF72CBFFFF780BFFFF79ABF70B51B4C13
:10EC1000207900072DD41A48017801EB810100EB1F
:10EC200081052E6900F0E9FBE9882A89761E1144E6
:10EC30003144B1FBF0F02169002549B1616981429D
:10EC400006D1E560606840F001006060002008E0E7
:10EC500000F05EF810B10220E56002E0206920B10A
:10EC60000320BDE8704001F019B9BDE87040FFF71E
:10EC700081B9BDE8704001F007B9000068210020AB
:10EC800054280020F8B51A4C207800282ED020698E
:10EC900028B10026E06820B1002526B110E0012649
:10ECA000F8E70125F9E7684652DF052803D020B1CF
:10ECB000FDF7E0FF04E0012602E0216900988847A3
:10ECC00085B96088ADF800006946A06861DF052855
:10ECD00003D020B1FDF7CEFF04E0012502E0D4E926
:10ECE00002018847002EDED0002DD6D0F8BD0000EE
:10ECF000AC210020054940880A88904204D3498805
:10ED0000884201D80120704700207047F42000207D
:10ED100070B50E48017801EB810100EB8104256993
:10ED200000F06BFBE18822896D1E11442944B1FB80
:10ED3000F0F1074842698A4205D301D1006910B158
:10ED40004FF0000070BD4FF0010070BD542800204E
:10ED500068210020800701D0002070470120704703
:10ED600030B51488E51C9D4201D90C2030BD022528
:10ED70000D5513881C245B1C9BB21380CC54138844
:10ED80005B1C9BB21380012807D0022807D0032800
:10ED900007D0042807D0072030BD002004E0012060
:10EDA00002E0CD5401E00320C8541088401C1080BC
:10EDB000002030BD2DE9F047DFF8ACA0DAF80C00F8
:10EDC0009AF8004080469AF80460DAF80890DAF879
:10EDD00010703AE009EBC4052A7833E002EB4201F7
:10EDE0006B68521C03EBC101AB78D2B2934200D1E5
:10EDF00000220B78022B02D0032B23D11FE0D1F885
:10EE000004C00346014603E0614503D00B46C969CF
:10EE1000C1B1F9E7B1B18B4205D1C06918B9134F3F
:10EE20000126BE600027D1F800C0C969D96149B187
:10EE30000B6863440B6005E00174C06900E00021C9
:10EE40000028F9D169789142C8D1641EE4B2C1D2D8
:10EE5000CAE903078AF80460404502D00120BDE8F2
:10EE6000F0870020FBE700008C210020001001400B
:10EE70002DE9F04705462F48002680460778D0F850
:10EE80000C904BE0D8F8080000EBC70440E002D03B
:10EE90002846ED691EE02078616800EB4002401CC6
:10EEA000C0B201EBC2012070A278904200D126705E
:10EEB0000A784868012A2DD1027C5ABB8A684260D0
:10EEC000CA6882600A69C2604969816198F8041061
:10EED00001B146604268D8F81030DFF85CC0D11A42
:10EEE00021F07F41614502D28268114406E0991AFF
:10EEF000826821F07F418A4202D9511A016000E004
:10EF000006604660012186600174C66101F04AF81E
:10EF1000002DBCD1207861788842BCD17F1EFFB221
:10EF2000B0D2D8F80C10494502D00120BDE8F087D6
:10EF30000020FBE78C210020FFFF7F00002398B01A
:10EF4000464A05211846FDF7E1FE08B1FDF792FE9D
:10EF5000434A01214348FDF7C7FE08B1FDF78AFE89
:10EF60004048414A0121001DFDF7BEFE08B1FDF7F2
:10EF700081FEFEF7D5FCFFF735FD382101A8FDF72E
:10EF8000B0FA02208DF8040001248DF80640062016
:10EF90008DF80700354803250690ADF8145024215C
:10EFA0000FA8FDF79EFA8DF8484028200024139002
:10EFB000B420009414902E4B0FAA214601A8FEF70E
:10EFC00051F808B1FDF756FE00F070FD00F0B6FCF8
:10EFD0001C216846FDF785FA4FF42030CDE900404A
:10EFE0004FF47020029023488DF80C504089ADF802
:10EFF0000E0021480590214806908DF81040684683
:10F00000FEF79CFA08B1FDF735FE164C00224FF4CE
:10F0100080312068FDF7C2FE08B1FDF72BFE4FF4EA
:10F02000004100226068FDF7B9FE08B1FDF722FE3D
:10F030000320FEF707F908B1FDF71CFE4FF08050E2
:10F0400000692021401EC2B204488038FFF734F91D
:10F0500048DF0028FCD0FDF70DFEF9E784220020F0
:10F06000BDCF0100500402007DF60100A420002065
:10F0700001F20100AC24002039F20100B1E10100ED
:10F080000348416821F008014160007800F0B4BDF8
:10F090006821002070B5144682880E4605462088F7
:10F0A000111D0144921C994201D8FE2A01D90C205D
:10F0B00070BD521C32542088FF21401C80B2208039
:10F0C00031542088401C80B220808119288801F0AA
:10F0D000DDF82188084480B22080AA8842B1A9685E
:10F0E00041B13044FDF7E4F92088A9880844208024
:10F0F000002070BD072070BDF8B50E46017814469B
:10F100000546012901D1687830B12088821C9A42D5
:10F110002DD8012902D006E00720F8BD6978014406
:10F12000891C994223D8181A801E87B2ADF8007046
:10F130002188B01C084469467DDF0028EDD128787D
:10F14000022805D1BDF80010B94201D809210AE012
:10F150000821012805D16878B84202D8ADF800002E
:10F1600001E0ADF80070BDF80000FE2801D90C20C8
:10F17000F8BD2288401CB0542088401C80B22080FA
:10F1800031542088401C2080BDF8001008442080A5
:10F190000020F8BD00207047002070470020704715
:10F1A000800000F5E06000F1A040026822F44032E7
:10F1B0000260026842EA014101607047034908B5F4
:10F1C0000844002101600068009008BD0060004014
:10F1D00002494058012800D00020704700600040DC
:10F1E0004058002800D001207047D0F804030840A0
:10F1F00000D0012070474058002800D001207047FF
:10F2000010B528B1032815D10220FEF7A1FC0BE0B0
:10F210000020FEF79DFC08B1FDF72CFDFEF718FC61
:10F2200008B1FDF727FD3CDF002803D0BDE8104002
:10F23000FDF720BD10BD00000078002807D104486C
:10F240003B21008876DF002801D0FDF713BD704711
:10F25000802000200021425C0AB101207047491C37
:10F260000629F8D30020704770B50546C0EBC501EC
:10F270000B4800EB81040020C4F81100A4F815002D
:10F2800020461021FDF72DF9FF202074A0764FF6BF
:10F29000FF7020832846BDE8704000F0FDBF0000ED
:10F2A000B426002070B50D00044602D10020FDF701
:10F2B000E1FC14B90020FDF7DDFC28782070698896
:10F2C0006170090AA170A988E170090A2171E888B2
:10F2D0006071000AA07170BD06490979490701D41F
:10F2E0000820704720B10449497801600020704728
:10F2F0000E207047682100205428002030B5104BA4
:10F300001B795B0701D4082030BD18B112B1046825
:10F310007CB901E00E2030BD0A4B1D684DB140683C
:10F320001D8901FB050059685B8903FB05118142BA
:10F3300001D8072030BDC2E90040002030BD0000E8
:10F340006821002020290020F8B5054621480E46F6
:10F350000079400701D40820F8BD15B1286870BBBA
:10F3600001E00E20F8BD1C4C0027206838B36189ED
:10F370002289606801FB0201686881421FD9FFF79A
:10F38000E9FC70B1D5E9000200EB400004EB80001D
:10F3900043680189D41AB4FBF1FC01FB1C4474B925
:10F3A00001E01020F8BDB6FBF1F401FB146434B9A0
:10F3B0002EB14089324400FB0130824201D907203E
:10F3C000F8BD33460022294603200097FEF70CFEC5
:10F3D000F8BD0000682100202029002010B54FF062
:10F3E00010204469601C04D000F007F8B4FBF0F072
:10F3F00010BD4FF08050406910BD4FF08050006943
:10F4000080B270472DE9F843804623481F461646D0
:10F4100000790D46400702D40820BDE8F8832DB1DD
:10F42000B8F1000F02D0286898B901E00E20F4E787
:10F430001A4C206868B162892089616802FB00115A
:10F440006A68914205D926B1B04202D3F1198142CE
:10F4500001D90720E1E74046FFF77CFCD0B13846F0
:10F46000FFF778FCB0B16868FFF774FC90B168688A
:10F470003246C1194046FDF71BF800962868002265
:10F4800000EB4000434654F8204002212846A047A4
:10F490000020C2E71020C0E76821002020290020BA
:10F4A000F8B504461C481E46154600790F4640072D
:10F4B00001D40820F8BD1FB114B1206898B901E04B
:10F4C0000E20F8BD1548016869B14289416800897C
:10F4D00002FB00116268914205D925B1A84202D30E
:10F4E000A919814201D90720F8BD3846FFF732FC3F
:10F4F00078B13046FFF72EFC58B16068FFF72AFC60
:10F5000038B12B463A46214601200096FEF76CFDA5
:10F51000F8BD1020F8BD000068210020202900203F
:10F5200010490246087800281AD0042818D0022A68
:10F5300014D0032A14D10A7912070FD48A69521CF5
:10F540008A61B2F57A7F06D0022801D000F054BB60
:10F55000487800F0A3BC0D20FDF7B4BBFFF7ECB971
:10F560007047000068210020F8B504461C481E467C
:10F57000154600790F46400701D40820F8BD1FB199
:10F5800014B1206898B901E00E20F8BD1548016853
:10F5900069B142894168008902FB001162689142A9
:10F5A00005D925B1A84202D3A919814201D9072062
:10F5B000F8BD3846FFF7CEFB78B13046FFF7CAFBFF
:10F5C00058B16068FFF7C6FB38B12B463A46214672
:10F5D00004200096FEF708FDF8BD1020F8BD0000DD
:10F5E000682100202029002070B590B00E46054605
:10F5F0001C216846FCF775FF00249DF80000039469
:10F6000040F002008DF8000001208DF836000194D2
:10F6100042F65420049405940694ADF834000C94FA
:10F62000F0798DF83000307A8DF831009DF8320095
:10F63000142120F00600801C20F019008DF8320003
:10F6400007A8FCF74EFF70898DF83800000A8DF886
:10F6500039000DA807900CA808900220ADF82400EE
:10F66000ADF828000EA8ADF826400B90A88805F14B
:10F670000E0307AA6946A2DF10B070BD1FB50124B2
:10F680008DF8004000208DF801008DF80200184927
:10F69000184800F0BAF9ADF80400154915481031C2
:10F6A000083000F0B2F98DF80600114911482031F8
:10F6B000103000F0AAF9ADF80800BDF80400B0F56C
:10F6C000407F01D98DF80240094869462C38FEF781
:10F6D000BDF800280BD0082809D0A0F54051043906
:10F6E00005D043F20141884201D0FDF7C3FA1FBDA6
:10F6F000D82400208C20002070B594B00024064649
:10F7000007949DF81C000D4620F00F00401C20F0CF
:10F71000F00010308DF81C0008798DF81D009DF860
:10F720001E001C2120F00600801C8DF81E0068467B
:10F73000FCF7D7FE9DF80000019440F010008DF812
:10F74000000007A8CDE9044001208DF84E00039485
:10F7500042F653200694ADF84C000D9468798DF86C
:10F760003400A8798DF835009DF83600142120F07A
:10F770000600801C20F0180040F001008DF83600D3
:10F7800008A8FCF7AEFE13A808900DA809900EAAD1
:10F7900005F10C01304600F010F8ADF828001420F7
:10F7A000ADF82C000EA8ADF82A400C90B088B31D1F
:10F7B00008AA6946A2DF14B070BDF0B58C885470F9
:10F7C000240A064694708879D070347E0023042081
:10F7D000E40707D00C782CB10C891471240A01239A
:10F7E00054710620347EA4070DD54C785CB11518F1
:10F7F000CC682C70270A6F70270C240EAF7043F072
:10F800000203EC70001D347E640703D5897809B1CA
:10F8100043F004031370F0BD70B5012670044FF07F
:10F82000E0210025C1F88001084C4010C4F84803CD
:10F83000C4F8080366602F20FCF7ECFDA660044CBA
:10F840002F202561FCF7E6FDE57070BD001001403A
:10F850008C21002009480A490022C37DC1F80821F3
:10F8600043B1D1F81815437EC268D154417E491C7A
:10F8700041767047D1F81805704700003428002001
:10F88000002000401FB501228DF8080004488DF8C3
:10F8900000200191D0E90012684690471FBD00008A
:10F8A0003428002008B502490020009108BD00005E
:10F8B0008020002010B50121202803DA1D4A814054
:10F8C000114004E0402803DAA0F12002914041B148
:10F8D000002809DA00F00F0101F1E02191F8141D70
:10F8E00006E042F2010010BD00F1E02191F80014A1
:10F8F0004909082914D299B1012911D004290FD03E
:10F9000005290DD00C4A946800F01F03012199408D
:10F91000400944B152F820300B4342F8203007E050
:10F9200042F2020010BD800000F1E020C0F800119A
:10F93000002010BDFC06FFBC8429002070B51D48C6
:10F940005121016064214160012181600173014600
:10F95000194800F04FF8174880211030002401604A
:10F960004FF4D06141604FF4C0718160047301466F
:10F970001148083000F03EF80E48282120301425A8
:10F980000160A021C0E90115047301460A48103046
:10F9900000F030F807487D213030C0E900510521E2
:10F9A000816004730146BDE870400348183000F0E0
:10F9B00021B80000C82400208420002010B503686E
:10F9C0000A6889689C1A8C4202D9591A016010BDD4
:10F9D00001210260017110BD10B54B680268896891
:10F9E0009C1A8C4202D91144016010BD00210360B1
:10F9F000017110BD0A7B1AB149680160002102E063
:10FA00000968016001210171704710B50446007951
:10FA10000028204602D0FFF7DFFF01E0FFF7CEFF0E
:10FA2000206810BD2DE9F0410746806A14468846DB
:10FA3000C8B3002531E000BFB96A05EB450001EB12
:10FA40008006B088801CFE2802D90C20BDE8F08119
:10FA50002288401C08F8020020881622401C80B230
:10FA6000208008F800202088401C80B2208000EB15
:10FA70000801308800F00AFC2188084480B2208008
:10FA8000B28842B1B16871B14044FCF711FD2088E1
:10FA9000B188084420806D1CEDB297F82C00A84274
:10FAA000CAD80020D2E7FFE70720CFE730B59DB0E6
:10FAB0001C216846FCF715FD0520ADF80A009DF8ED
:10FAC0000400002420F00F00401C20F0F000103053
:10FAD0008DF804009DF80500012520F0FF008DF849
:10FAE00005009DF806008DF80C5020F0FF008DF801
:10FAF00006009DF80700009420F00F00401C20F045
:10FB0000F00010308DF807009DF808008DF80D40CA
:10FB100020F0FF008DF808008DF80E40ADF814407D
:10FB200069462F48FDF76CFE08B1FDF7A3F81421D4
:10FB300007A8FCF7D6FC9DF82900079420F00F00D9
:10FB4000401C20F0F00010308DF829009DF82A00AC
:10FB50008DF8205020F00F00401C20F0F0001030F5
:10FB60008DF82A009DF82B00099420F0FF008DF8F5
:10FB70002B009DF82C0007A920F00F00401C20F05E
:10FB8000F00010308DF82C0064208DF82800144807
:10FB90001838FDF784FC08B1FDF76CF840210CA87B
:10FBA000FCF79FFC0FA10CA8FDF7ABFE9DF86C00C5
:10FBB00020F00F00401C20F0F00010308DF86C0099
:10FBC0009DF86D0020F0FF008DF86D000CA8FDF78A
:10FBD00053FD002801D0FDF74DF81DB030BD0000E9
:10FBE000AC2400204E6F7264696353656D69636F66
:10FBF0006E647563746F72000C49087040B101281F
:10FC00000FD002280FD003280FD14869FEF7DABEC3
:10FC100000208861C86106484078002805D0FEF7BA
:10FC2000B9B900F0F7B800F053B870476821002068
:10FC30005428002018B10349C860002070470E20E6
:10FC400070470000AC2100201CB5034901910091D0
:10FC5000694660DF1CBD00008020002070B50E46A4
:10FC60000546144614211046FCF73BFC0120208079
:10FC70000021216121732672657205B1A0720020F6
:10FC800070BDFCF7E5BF000030B409B18C0702D0AD
:10FC9000072030BC7047074C0125A16062800649EF
:10FCA000636010DF0028F4D1257030BC1620FFF708
:10FCB00001BE0000AC21002083FC010018B1034903
:10FCC0000861002070470E2070470000AC21002022
:10FCD0002DE9F041164C606820F001006060154885
:10FCE000017801EB810100EB81063569FFF785FBA7
:10FCF000B5FBF0F76761FFF780FBF1886D1E2944C3
:10FD0000B1FBF0F08742606802D140F0020001E0F0
:10FD100020F0020060602079E16800F002000843F2
:10FD200004D00020BDE8F04100F0B8B80220F9E7A7
:10FD3000682100205428002001484069FEF742BE97
:10FD40006821002010B5FFF749FB441EFFF755FB63
:10FD50004443FFF752FB05494A69521E5043CA68A3
:10FD60002146BDE81040FEF730BE000068210020AB
:10FD70002DE9F0411048017801EB810100EB81048D
:10FD80002569FFF73AFBE188228911442944B1FB38
:10FD9000F0F200FB1216FFF721FB471EFFF72DFBC9
:10FDA00007FB0061E08822891044044A2844126954
:10FDB000BDE8F041FEF709BE54280020682100206C
:10FDC00010B5FFF70BFB441EFFF717FB4443FFF78B
:10FDD00014FBB4FBF0F0BDE81040FEF7F3BD0000EB
:10FDE00070B5FFF70AFB8608FFF707FB074949696B
:10FDF00000FB01F4FFF7F2FA451EFFF7FEFA684335
:10FE000032462146BDE87040FEF7DFBD6821002084
:10FE10000020704770B51448017801EB810100EBB8
:10FE20008104241DFFF7E9FA6188104E884211D23F
:10FE3000FFF7E3FA61880D1AFFF7DFFA8208A1885D
:10FE4000E0680844216928442944FEF7BEFDFFF715
:10FE5000D4FA07E0A288E06810448A082169FEF716
:10FE6000B4FD6088F06170BD542800206821002036
:10FE700004480079000702D4012000F00FB800F018
:10FE800003B80000682100200348416821F0080100
:10FE90004160407800F002B86821002002494870B3
:10FEA000024951F82000004768210020CC040200DC
:10FEB00010B50446FFF734FB2046BDE81040FDF7BF
:10FEC0009FB970B50C00054602D10020FCF7D2FEA8
:10FED00015B90020FCF7CEFE207828702088000A93
:10FEE00068702068000CA8702068000EE870207907
:10FEF0002871207A68712089000AA871A068000C16
:10FF0000E87170BD03480079000701D4FEF732B8EC
:10FF1000FFF7BABF682100202DE9F84F204C0025DB
:10FF20006846D4E903B6FEF7D9FC8046FEF742FFE7
:10FF30000746A946B8F1000F25D00023009ACC4609
:10FF4000E06819E007680146974202D9BA1A0260D0
:10FF500014E0C1F800C0D1F80C80D21BC8693B4442
:10FF60008A46B8F1000F07D0F71827F07F47C1E99C
:10FF70000178CAF81C500D460028E3D1E0602846FD
:10FF8000FEF776FF04E02846FEF772FF00B917B1CE
:10FF90005846FEF773F884F80490BDE8F88F000027
:10FFA0008C2100200D4B10B5D96831B102680C6866
:10FFB000A24204D8A21A0A60C161D86010BD0B46E3
:10FFC00003E00B46C969121B21B10C689442F8D3B7
:10FFD000A41A0C600260C161D86110BD8C210020A0
:10FFE0002DE9F0411D4DEC68002C35D01C48002750
:10FFF00000682969B846401A20F07F462068B04260
:020000040002F8
:1000000015D82246361A0744E469107C68B182F894
:1000100010806B6933B1D2E90501984728B1FCF72C
:1000200029FE02E0D2E905108847002CE6D1697864
:10003000A878814206D1401CC0B2A870022801D124
:1000400085F802800548A978183040F82170BDE88D
:10005000F0411420FCF74EBBBDE8F0818C2100205C
:1000600004150140064A0020C2F81C010548838A95
:100070008168C95C838A5B1C8382C2F81C15704747
:1000800000200040342800201FB500218DF8080012
:1000900005488DF80010826801928175D0E9001240
:1000A000684690471FBD0000342800202DE9FF411D
:1000B0003E4D4FF400712846FFF797F801273C4C5E
:1000C0004FF40178002600B34FF492712846FFF7F1
:1000D00087F8D0B1C5F82461C5F80883A07E00B9BF
:1000E0006F6002208DF80000D5F88004C5F8800408
:1000F0000390E07D8DF80800E0680190E6752676B3
:10010000D4E900126846904724E004212846FFF70E
:100110006CF8F8B14FF484712846FFF761F8C8B164
:10012000FFF798FBE07D617E884213D1227E3AB1D1
:10013000607EE168E2752269E2602676667607E015
:10014000A07E00B96F60C5F80883E675607EE1683F
:10015000FFF798FB4FF48E712846FFF741F858B12E
:10016000A18AA07D814202D2FFF77CFF04E0C5F89E
:100170001C6108B1FFF788FF4FF4A2712846FFF712
:100180002FF800280FD0C5F84461A07E00B12F6081
:10019000E07D002807D0E675607EE16804B0BDE828
:1001A000F041FFF76FBBBDE8FF8100000020004079
:1001B000342800207FB5334C4FF492712046FFF76E
:1001C0001AF8314D0026B0B1C4F8246102208DF830
:1001D0000000D4F88004C4F880040390D4F83C05EF
:1001E0008DF80800E8680190EE752E76D5E90012CA
:1001F000684690471FE04FF488712046FEF7FBFFEA
:10020000C8B1C4F81061D4F83C05E97DC0B28142A0
:1002100011D12A7E5AB1E968D4F8003223F02003C4
:10022000C4F80032EA752A69EA602E7601E0EE75BC
:10023000E968FFF727FB4FF4A2712046FEF7DBFFCA
:1002400050B1C4F84461E87D30B1EE75D4F83C0596
:10025000E968C0B2FFF716FB4FF490712046FEF735
:10026000CAFF00280CD0C4F82061A87D002807D060
:10027000D4F84C0504B0C0B2BDE87040FFF704BF2D
:100280007FBD000000200040342800200870000AD4
:1002900048700220704700000121814002484268F6
:1002A0008A434260704700005021002038B515494C
:1002B0004888A0F57F42FF3A23D04A78124C521C5E
:1002C000D2B24A70237B93420AD3091D75DF0028FE
:1002D00017D0A169002914D001B0BDE8304008470B
:1002E00000254D70217C29B13B2176DF10B1A16939
:1002F00001B188476169002903D08DF80050684634
:10030000884738BDF020002098260020EFF30580B4
:10031000C005C00D13D0103840B2002806DA00F036
:100320000F0000F1E02090F8140D03E000F1E02050
:1003300090F800044009022803D0062803D00220C8
:100340007047002070470120704742788378521C24
:10035000D2B2934200D100220378934201D100200F
:1003600070470A704168407800EB400001EBC00024
:1003700070472DE9FC411646DDE90854CDE90054EB
:100380001F468046022200F00CF8002807D1CDE974
:1003900000543B4610223146404600F002F8BDE8CA
:1003A000FC812DE9FC5F0026DDE90C4B9946924665
:1003B0008E4680462788354630E0D8F80400002273
:1003C00000EB850069460068019001A865DF002800
:1003D00030D19DF8000050451FD10EB1002100E042
:1003E0000221228808441118594522D846B9521CC6
:1003F00090B2208009F800E02088401C208001266F
:10040000218801A801EB0902694665DF002811D1A6
:1004100020889DF80010084420806D1CB8F800006A
:10042000A842CADC56B12088C01B401E80B2FF28FB
:1004300002D90C20BDE8FC9F09F807000020F9E76D
:10044000017911B9007B002800D00120704700001D
:10045000C4210020E421002001000007082500201D
:1004600028250020542500200D0000000E0000006B
:100470000F000000100000000D00030065DA01000D
:100480000E00030065DA01000F00030065DA0100C9
:100490001000030065DA0100782600209DF10100BC
:1004A00041EB010059EA010009EC010099F101005A
:1004B00009EB010055EA010005EC010095F101008E
:1004C0005DEA010051EA010001EC0100C1FD0100FB
:1004D000E1FD010039FD010071FD010045FD010054
:1004E00071FE010025E3010065E2010005FF010046
:1004F0000DEC0100140502008020002044010000E2
:1005000044C5010030050200C4210020CC270000B2
:1005100008CA01000323FFFF0C2A141801000F185A
:1005200001000A180103E8FFFF1490D00300000047
:040000050001C40131
:00000001FF
